:020000040800F2
:100000000050002035200008D91B0008DB1B000829
:10001000DD1B0008DF1B0008E11B000800000000DA
:10002000000000000000000000000000F152000885
:10003000E31B00080000000091530008D55300089E
:100040007D2000087D2000087D2000087D2000081C
:100050007D2000087D2000087D2000087D2000080C
:100060007D2000087D2000087D2000087D200008FC
:100070007D2000087D2000087D2000087D200008EC
:100080007D2000087D2000087D2000087D200008DC
:100090007D2000087D2000087D2000087D200008CC
:1000A0007D2000087D2000087D2000087D200008BC
:1000B000E51B00087D200008F51B00087D200008D6
:1000C0007D2000087D2000087D2000087D2000089C
:1000D0007D200008051C0008151C00087D20000874
:1000E0007D2000087D2000087D2000080000000021
:1000F0000000000000000000000000000000000000
:0C01000000000000000000005FF808F1A3
:1001100010B5054C237833B9044B13B10448AFF341
:1001200000800123237010BD540400200000000053
:10013000F86F000808B5034B1BB103490348AFF340
:10014000008008BD0000000058040020F86F00087F
:1001500081F0004102E000BF83F0004330B54FEA78
:1001600041044FEA430594EA050F08BF90EA020FE5
:100170001FBF54EA000C55EA020C7FEA645C7FEA78
:10018000655C00F0E2804FEA5454D4EB5555B8BF9B
:100190006D420CDD2C4480EA020281EA030382EA0C
:1001A000000083EA010180EA020281EA0303362D9E
:1001B00088BF30BD11F0004F4FEA01314FF4801C71
:1001C0004CEA113102D0404261EB410113F0004F83
:1001D0004FEA03334CEA133302D0524263EB43033A
:1001E00094EA050F00F0A780A4F10104D5F1200ED8
:1001F0000DDB02FA0EFC22FA05F2801841F1000133
:1002000003FA0EF2801843FA05F359410EE0A5F106
:1002100020050EF1200E012A03FA0EFC28BF4CF037
:10022000020C43FA05F3C01851EBE37101F00045ED
:1002300007D54FF0000EDCF1000C7EEB00006EEBFA
:100240000101B1F5801F1BD3B1F5001F0CD3490884
:100250005FEA30004FEA3C0C04F101044FEA4452DB
:1002600012F5800F80F09A80BCF1004F08BF5FEA62
:10027000500C50F1000041EB045141EA050130BD42
:100280005FEA4C0C404141EB0101013C28BFB1F554
:10029000801FE9D291F0000F04BF01460020B1FA9F
:1002A00081F308BF2033A3F10B03B3F120020CDA72
:1002B0000C3208DD02F1140CC2F10C0201FA0CF050
:1002C00021FA02F10CE002F11402D8BFC2F1200CB5
:1002D00001FA02F120FA0CFCDCBF41EA0C0190406B
:1002E000E41AA2BF01EB0451294330BD6FEA0404B4
:1002F0001F3C1CDA0C340EDC04F11404C4F120029F
:1003000020FA04F001FA02F340EA030021FA04F3B0
:1003100045EA030130BDC4F10C04C4F1200220FA07
:1003200002F001FA04F340EA0300294630BD21FA45
:1003300004F0294630BD94F0000F83F4801306BF0B
:1003400081F480110134013D4EE77FEA645C18BFFF
:100350007FEA655C29D094EA050F08BF90EA020F96
:1003600005D054EA000C04BF1946104630BD91EA8E
:10037000030F1EBF0021002030BD5FEA545C05D191
:100380004000494128BF41F0004130BD14F58004D0
:100390003CBF01F5801130BD01F0004545F0FE4144
:1003A00041F470014FF0000030BD7FEA645C1ABF79
:1003B000194610467FEA655C1CBF0B46024650EAB0
:1003C000013406BF52EA033591EA030F41F40021DC
:1003D00030BD00BF90F0000F04BF0021704730B562
:1003E0004FF4806404F132044FF000054FF0000137
:1003F00050E700BF90F0000F04BF0021704730B5F8
:100400004FF4806404F1320410F0004548BF4042CC
:100410004FF000013EE700BF42004FEAE2014FEA21
:1004200031014FEA02701FBF12F07F4393F07F4FFC
:1004300081F06051704732F07F4208BF704793F0FF
:100440007F4F04BF41F40021704730B54FF4607412
:1004500001F0004521F000411CE700BF50EA010215
:1004600008BF704730B54FF000050AE050EA0102BE
:1004700008BF704730B511F0004502D5404261EB2E
:1004800041014FF4806404F132045FEA915C3FF46F
:10049000D8AE4FF003025FEADC0C18BF03325FEA0C
:1004A000DC0C18BF033202EBDC02C2F1200300FABD
:1004B00003FC20FA02F001FA03FE40EA0E0021FAE2
:1004C00002F11444BDE600BF70B54FF0FF0C4CF4D0
:1004D000E06C1CEA11541DBF1CEA135594EA0C0F82
:1004E00095EA0C0F00F0DEF82C4481EA030621EABD
:1004F0004C5123EA4C5350EA013518BF52EA0335F8
:1005000041F4801143F4801338D0A0FB02CE4FF0A9
:100510000005E1FB02E506F00042E0FB03E54FF0D9
:100520000006E1FB03569CF0000F18BF4EF0010ED1
:10053000A4F1FF04B6F5007F64F5407404D25FEACD
:100540004E0E6D4146EB060642EAC62141EA555180
:100550004FEAC52040EA5E504FEACE2EB4F1FD0CC2
:1005600088BFBCF5E06F1ED8BEF1004F08BF5FEA40
:10057000500E50F1000041EB045170BD06F00046F2
:1005800046EA010140EA020081EA0301B4EB5C049F
:10059000C2BFD4EB0C0541EA045170BD41F4801197
:1005A0004FF0000E013C00F3AB8014F1360FDEBFBC
:1005B000002001F0004170BDC4F10004203C35DA98
:1005C0000C341BDC04F11404C4F1200500FA05F31B
:1005D00020FA04F001FA05F240EA020001F00042BC
:1005E00021F0004110EBD37021FA04F642EB060132
:1005F0005EEA430E08BF20EAD37070BDC4F10C045C
:10060000C4F1200500FA04F320FA05F001FA04F21F
:1006100040EA020001F0004110EBD37041F100010B
:100620005EEA430E08BF20EAD37070BDC4F1200516
:1006300000FA05F24EEA020E20FA04F301FA05F27E
:1006400043EA020321FA04F001F0004121FA04F226
:1006500020EA020000EBD3705EEA430E08BF20EAF6
:10066000D37070BD94F0000F0FD101F00046400030
:1006700041EB010111F4801F08BF013CF7D041EAB2
:10068000060195F0000F18BF704703F000465200B6
:1006900043EB030313F4801F08BF013DF7D043EA87
:1006A0000603704794EA0C0F0CEA135518BF95EA3D
:1006B0000C0F0CD050EA410618BF52EA4306D1D1C4
:1006C00081EA030101F000414FF0000070BD50EAE3
:1006D000410606BF1046194652EA430619D094EA6D
:1006E0000C0F02D150EA013613D195EA0C0F05D157
:1006F00052EA03361CBF104619460AD181EA0301AB
:1007000001F0004141F0FE4141F470014FF0000062
:1007100070BD41F0FE4141F4780170BD70B54FF0FD
:10072000FF0C4CF4E06C1CEA11541DBF1CEA13557D
:1007300094EA0C0F95EA0C0F00F0A7F8A4EB05045F
:1007400081EA030E52EA03354FEA013100F0888056
:100750004FEA03334FF0805545EA131343EA12631F
:100760004FEA022245EA111545EA10654FEA0026D4
:100770000EF000419D4208BF964244F1FD0404F58D
:10078000407402D25B084FEA3202B61A65EB0305E9
:100790005B084FEA32024FF480104FF4002CB6EBA6
:1007A000020E75EB030E22BFB61A754640EA0C0026
:1007B0005B084FEA3202B6EB020E75EB030E22BF66
:1007C000B61A754640EA5C005B084FEA3202B6EBA7
:1007D000020E75EB030E22BFB61A754640EA9C0066
:1007E0005B084FEA3202B6EB020E75EB030E22BF36
:1007F000B61A754640EADC0055EA060E18D04FEAF4
:10080000051545EA16754FEA06164FEAC30343EA93
:1008100052734FEAC2025FEA1C1CC0D111F4801F60
:100820000BD141EA00014FF000004FF0004CB6E759
:1008300011F4801F04BF01430020B4F1FD0C88BFF8
:10084000BCF5E06F3FF6AFAEB5EB030C04BFB6EB03
:10085000020C5FEA500C50F1000041EB045170BDF6
:100860000EF0004E4EEA113114EB5C04C2BFD4EB23
:100870000C0541EA045170BD41F480114FF0000EA7
:10088000013C90E645EA060E8DE60CEA135594EA23
:100890000C0F08BF95EA0C0F3FF43BAF94EA0C0F26
:1008A0000AD150EA01347FF434AF95EA0C0F7FF49B
:1008B00025AF104619462CE795EA0C0F06D152EAEF
:1008C00003353FF4FDAE1046194622E750EA4106D3
:1008D00018BF52EA43067FF4C5AE50EA41047FF4E4
:1008E0000DAF52EA43057FF4EBAE12E74A0011D296
:1008F00012F5001211D20DD56FF47873B3EB62527A
:100900000ED44FEAC12343F0004343EA505323FA85
:1009100002F070474FF00000704750EA013002D1FA
:100920004FF0FF3070474FF0000070474FEA410230
:10093000B2F1E04324BFB3F5001CDCF1FE5C0DD93D
:1009400001F0004C4FEAC0024CEA5070B2F1004F87
:1009500040EB830008BF20F00100704711F0804F8A
:1009600021D113F13872BCBF01F00040704741F44F
:1009700080114FEA5252C2F11802C2F1200C10FA53
:100980000CF320FA02F018BF40F001004FEAC12337
:100990004FEAD32303FA0CFC40EA0C0023FA02F3DB
:1009A0004FEA4303CCE77FEA625307D150EA0133B1
:1009B0001EBF4FF0FE4040F44000704701F0004081
:1009C00040F0FE4040F40000704700BF4FF0FF3C95
:1009D00006E000BF4FF0010C02E000BF4FF0010C39
:1009E0004DF804CD4FEA40024FEA41037FEA226C02
:1009F00018BF7FEA236C11D001B052EA530C18BF24
:100A000090EA010F58BFB2EB030088BFC81738BF88
:100A10006FEAE17018BF40F0010070477FEA226C76
:100A200002D15FEA402C05D17FEA236CE4D15FEA72
:100A3000412CE1D05DF8040B704700BF84460846A6
:100A40006146FFE70FB5FFF7C9FF002848BF10F167
:100A5000000F0FBD4DF808EDFFF7F4FF0CBF0120AC
:100A600000205DF808FB00BF4DF808EDFFF7EAFF36
:100A700034BF012000205DF808FB00BF4DF808EDF1
:100A8000FFF7E0FF94BF012000205DF808FB00BFE6
:100A90004DF808EDFFF7D2FF94BF012000205DF86C
:100AA00008FB00BF4DF808EDFFF7C8FF34BF012079
:100AB00000205DF808FB00BF844641EA000313F004
:100AC000030349D1403A23D30B6803604B6843606A
:100AD0008B688360CB68C3600B6903614B694361BA
:100AE0008B698361CB69C3610B6A03624B6A4362A2
:100AF0008B6A8362CB6AC3620B6B03634B6B43638A
:100B00008B6B8363CB6BC36340304031403ADBD2A5
:100B100030320BD30B6803604B6843608B68836093
:100B2000CB68C36010301031103AF3D20C3205D3C9
:100B300051F8043B40F8043B043AF9D2043208D09F
:100B4000D2071CBF11F8013B00F8013B01D30B8811
:100B500003806046704700BF082A13D38B07B1D0CB
:100B600010F00303AED0C3F10403D21ADB071CBF9D
:100B700011F8013B00F8013BA4D331F8023B20F807
:100B8000023B9FE7043AD9D3013A11F8013B00F840
:100B9000013BF9D20B7803704B7843708B788370EC
:100BA000604670474FF0FF3C06E000BF4FF0010C7D
:100BB00002E000BF4FF0010C4DF804CD4FEA410CAC
:100BC0007FEA6C5C4FEA430C18BF7FEA6C5C1BD079
:100BD00001B050EA410C0CBF52EA430C91EA030FFA
:100BE00002BF90EA020F0020704710F1000F91EA57
:100BF000030F58BF994208BF90422CBFD8176FEA25
:100C0000E37040F0010070474FEA410C7FEA6C5CF2
:100C100002D150EA013C07D14FEA430C7FEA6C5CF9
:100C2000D6D152EA033CD3D05DF8040B704700BF25
:100C30008446104662468C461946634600E000BF73
:100C400001B5FFF7B7FF002848BF10F1000F01BD45
:100C50004DF808EDFFF7F4FF0CBF012000205DF810
:100C600008FB00BF4DF808EDFFF7EAFF34BF012095
:100C700000205DF808FB00BF4DF808EDFFF7E0FF2E
:100C800094BF012000205DF808FB00BF4DF808ED7F
:100C9000FFF7CEFF94BF012000205DF808FB00BFE6
:100CA0004DF808EDFFF7C4FF34BF012000205DF8C8
:100CB00008FB00BF30B585B08DF80C000A4C42F23D
:100CC00010750095012303AA8021204602F04CF8FC
:100CD0000095012302AA8021204602F001F99DF827
:100CE000080005B030BD00BF9004002000B585B0FD
:100CF0008DF80C008DF80D1042F210730093022352
:100D000003AA8021024802F02FF805B05DF804FB29
:100D1000900400200000000038B5FFF77DFB1EA303
:100D2000D3E90023FFF7D0FBFFF700FEFFF774FBCA
:100D300002460B461AA1D1E90001FFF7EFFC0022A1
:100D4000194BFFF709FA0022184BFFF707FA06F0D4
:100D5000D7F8FFF7CBFDC5B20020FFF7ABFF044685
:100D600000F06F0141F010010020FFF7BFFF29469E
:100D7000FE20FFF7BBFF21460020FFF7B7FF022050
:100D800001F0A2F964F05E01C9B20020FFF7AEFFE6
:100D900038BD00BFAFF30080713D0AD7A370ED3FAF
:100DA0000000000084D7B7400000F03F0000E03FA3
:100DB000F8B504460F4616468500EDB2A81DC9B227
:100DC00000F0FE00FFF792FFE81DC7F30721C0B255
:100DD000FFF78CFFA01C8000F1B200F0FC00FFF7D1
:100DE00085FF05F10900C6F30721C0B2FFF77EFFBA
:100DF000F8BD10B5044600210846FFF777FF2046EE
:100E0000FFF78AFF4FF4FA7001F05EF910BD0000A1
:100E100010B504460E4BA3FB0123C91A03EB510383
:100E2000C3F34713581CFFF7E5FA07A3D3E90023E0
:100E3000FFF74AFBFFF75AFD024600212046FFF765
:100E4000B7FF10BDAFF300809A99999999995940CD
:100E50006DC1166C08B500210120FFF7D9FF5A219A
:100E60000220FFF7D5FFB4210520FFF7D1FF5A215B
:100E70000620FFF7CDFF00210920FFF7C9FF2D2134
:100E80000A20FFF7C5FFB4210D20FFF7C1FF912114
:100E90000E20FFF7BDFF08BD10B587210220FFF728
:100EA000B7FF5A210E20FFF7B3FF254C208803F02F
:100EB0007FFF00210120FFF7ABFFB4210D20FFF7DA
:100EC000A7FF20881E3803F073FF5A210220FFF786
:100ED0009FFF87210E20FFF79BFF87210520FFF74B
:100EE00097FF2D210920FFF793FF208803F060FF73
:100EF0005A210A20FFF78CFF2D210620FFF788FFDB
:100F0000208803F055FFB4210520FFF781FF002161
:100F10000920FFF77DFF20881E3803F049FF5A2182
:100F20000620FFF775FF2D210A20FFF771FF2D2105
:100F30000120FFF76DFF87210D20FFF769FF10BD2E
:100F40000000002010B587210E20FFF761FF5A2115
:100F50000220FFF75DFF254C208803F029FFB42114
:100F60000D20FFF755FF00210120FFF751FF2088DA
:100F70001E3803F01DFF5A210E20FFF749FF912173
:100F80000220FFF745FF2D210920FFF741FF8721B0
:100F90000520FFF73DFF208803F00AFF2D210A20DE
:100FA000FFF736FF5A210620FFF732FF208803F0B3
:100FB000FFFE00210920FFF72BFFB4210520FFF7DA
:100FC00027FF20881E3803F0F3FE5A210A20FFF77E
:100FD0001FFF2D210620FFF71BFF87210D20FFF7A4
:100FE00017FF2D210120FFF713FF10BD0000002087
:100FF00010B5FFF72FFF2D210120FFF709FF8721F3
:101000000D20FFF705FF244C208803F0D1FE5A2164
:101010000220FFF7FDFE5A210E20FFF7F9FE20887F
:1010200003F0C6FE00210120FFF7F2FEB4210D20DF
:10103000FFF7EEFE87210520FFF7EAFE2D210920AC
:10104000FFF7E6FE208803F0B3FE2D210620FFF710
:10105000DFFE00210A20FFF7DBFE208803F0A8FE58
:10106000B4210520FFF7D4FE00210920FFF7D0FEB0
:10107000208803F09DFE5A210220FFF7C9FE872138
:101080000E20FFF7C5FE5A210620FFF7C1FE2D21D5
:101090000A20FFF7BDFE10BD0000002010B5FFF7CD
:1010A000D9FE87210520FFF7B3FE2D210920FFF788
:1010B000AFFE244C208803F07BFE5A210620FFF768
:1010C000A7FE5A210A20FFF7A3FE208803F070FE36
:1010D000B4210520FFF79CFE00210920FFF798FEB0
:1010E0002D210120FFF794FE87210D20FFF790FEB0
:1010F000208803F05DFE87210220FFF789FEB421DE
:101100000E20FFF785FE208803F052FE002101200B
:10111000FFF77EFEB4210D20FFF77AFE208803F052
:1011200047FE5A210620FFF773FE2D210A20FFF704
:101130006FFE5A210220FFF76BFE87210E20FFF77A
:1011400067FE10BD0000002010B50E4C01220221E8
:10115000204601F0A7F9012000F0B6FF002202218D
:10116000204601F09FF9084803681A6A22F00A0233
:101170001A621A6A1A62002103F03CF9034B1868DC
:1011800010BD00BF000801408C090020740400203D
:1011900038B50368B3F1804F00D038BD224B1B78BF
:1011A0003BB3012BF9D1214D0021284602F08FFEDF
:1011B0001F4C60600021284603F0C6F900251A4B39
:1011C0001D7060682368C01A1A4B1860FFF702F997
:1011D00013A3D3E90023FFF777F90022164BFFF79B
:1011E00073F9FFF7A3FB154B18604FF080435D6266
:1011F000D3E70E4C0021204602F069FE0C4B18602C
:1012000023681A6A22F00A021A621A6A42F002027B
:101210001A62054B01221A70BFE700BFAFF30080CE
:101220009CC420B07268A13F700400208C0900208B
:101230007C040020780400200000E03F74040020BB
:1012400008B500F02FFC0A2003F0B2FDF9E700001A
:1012500008B54FF0FF33002201214348006803F036
:101260003BFE35E02823802214213C2000F0C2FB05
:1012700023213C2000F08CFB3C4B3D4A93E80300CB
:1012800000F06AFBFFF760FF3A49FFF7F7FB38B160
:101290004FF40051384801F00BF9FFF7DBFD14E083
:1012A000FFF7FAFD11E02823FA2214213C2000F078
:1012B000A1FB23213C2000F06BFB2C4B2F4A93E831
:1012C000030000F049FBFFF793FE642003F070FD7C
:1012D0002B4B1B78013B042BF7D801A252F823F0CB
:1012E00065120008A7120008F51200081B13000879
:1012F000411300082823FA2214213C2000F07AFB35
:1013000023213C2000F044FB184B1E4A93E80300C5
:1013100000F022FBFFF7C2FED7E72823FA221421B0
:101320003C2000F067FB23213C2000F031FB0F4BF9
:10133000154A93E8030000F00FFBFFF703FEC4E734
:101340002823FA2214213C2000F054FB23213C20C6
:1013500000F01EFB054B0D4A93E8030000F0FCFA79
:10136000FFF778FDB1E700BF840400200C000020E7
:101370001070000800002042001001401C7000089E
:10138000590A0020287000083470000840700008D6
:1013900008B50A4A00210A4803F094FC094B18607A
:1013A000094A0021094803F08DFC094B18600948DF
:1013B00003F020FD084B186008BD00BFA0700008B6
:1013C000411200088C0400207C70000851120008B3
:1013D000880400206C70000884040020F0B589B0F7
:1013E00000240494059406940794244B9A6942F0CF
:1013F00010029A619A6902F010020092009A9A69AA
:1014000042F020029A619A6902F020020192019A48
:101410009A6942F004029A619A6902F00402029207
:10142000029A9A6942F008029A619B6903F00803E4
:101430000393039B124F22464FF40051384601F0AC
:1014400031F8104E22460221304601F02BF84FF4BD
:1014500000530493012505950694079504A9384681
:1014600000F00EFF022304930595069503230793CE
:1014700004A9304600F004FF09B0F0BD001002409E
:10148000001001400008014008B50B480B4B0360F9
:101490000B4B436000238360C3604FF480420261C2
:1014A00043618361C361036201F080FB00B908BD41
:1014B00000F088F8FBE700BF9004002000540040D3
:1014C000A086010008B50B480B4B03600B4B436033
:1014D00000238360C3604FF48042026143618361F3
:1014E000C361036201F062FB00B908BD00F06AF855
:1014F000FBE700BFE404002000580040A086010084
:1015000010B588B0002304930593069307930368EE
:10151000224A934204D0224A93421FD008B010BD01
:10152000204CA36943F00803A361A36903F00803F7
:101530000093009BC0230493122305930323079376
:1015400004A9194800F09CFEE36943F40013E36129
:10155000E36903F400130193019BDFE7114CA369D6
:1015600043F00803A361A36903F008030293029BFD
:101570004FF440630493122305930323079304A9B4
:10158000094800F07DFEE36943F48003E361E36909
:1015900003F480030393039BC0E700BF00540040A3
:1015A0000058004000100240000C014008B50268DD
:1015B000034B9A4200D008BD00F074FDFBE700BF6A
:1015C0000008004072B6FEE700B591B02822002165
:1015D00006A805F0D3FB0023019302930393049321
:1015E0000593012206924FF4803307930A92022258
:1015F0000D920E934FF4E0130F9306A802F088F8B3
:1016000080B90F23019302210291002303934FF429
:1016100080620492059301A802F0ACFA20B911B0DF
:101620005DF804FBFFF7CEFFFFF7CCFF08B500F035
:1016300027FDFFF7C9FFFFF7D1FEFFF725FF00F0F9
:1016400091FB00F0F1FA00F073FBFFF73BFF0B4852
:10165000FFF7CFFB00F0A2F900F040F801220849A3
:10166000084803F0D4FA0021074802F0C3FE03F053
:10167000E1FAFFF78DFE03F0FFFAFEE700005C429F
:10168000580A0020A40A00208C09002000B585B06B
:101690004FF0FF3302930192009101230246D021C3
:1016A000024801F07BFE05B05DF804FBE404002075
:1016B00000B587B002468DF817104FF0FF33029344
:1016C000012301930DF117010091D021024801F08F
:1016D000B3FD07B05DF804FBE404002000B583B05F
:1016E00001220DF107017520FFF7D0FF9DF80730AB
:1016F000682B02D003B05DF804FB01216B20FFF7DB
:10170000D7FFF7E700B587B08DF817004FF47A736D
:101710000293012301930DF1170200920022782118
:10172000024801F089FD07B05DF804FB9004002039
:1017300000B585B04FF47A730293019100900123B4
:1017400040227821024801F077FD05B05DF804FBE6
:101750009004002010B504468D20FFF7D3FF2046EB
:10176000FFF7D0FF10BD10B504468120FFF7CAFF78
:101770002046FFF7C7FF10BD08B5A420FFF7C2FF42
:1017800008BD08B5A620FFF7BDFF08BD08B5AF200E
:10179000FFF7B8FF08BD08B5FFF7B4FF08BD08B5EF
:1017A000FFF7B0FF08BD08B5FFF7ACFF08BD08B5EF
:1017B000FFF7A8FF08BD08B5FFF7A4FF08BD10B5E7
:1017C0000446A820FFF79EFF2046FFF79BFF10BDB1
:1017D00008B5FFF797FF08BD10B50446D320FFF703
:1017E00091FF2046FFF78EFF10BD10B5040144F0B5
:1017F000020464B244EA411404F0F204DA20FFF770
:1018000081FF2046FFF77EFF10BD10B540EA0110B2
:10181000C4B2D520FFF776FF2046FFF773FF10BD57
:1018200010B5002411E0A4F15000C0B2FFF7BBFFD7
:101830000020FFF7B0FF1020FFF7B1FF8021044820
:1018400000EBC410FFF774FF0134072CEBDD10BD73
:101850004405002008B5002303E0054A0021D154C7
:101860000133B3F5806FF8DBFFF7DAFF08BD00BF87
:1018700044050020CB0800EBC31001F00701012351
:101880008B40034A115C21EA03011154704700BFE9
:1018900044050020CB0800EBC31001F00701012331
:1018A0008B40024A115C19431154704744050020D3
:1018B0002DE9F04383B002AB03E90300A2F120035A
:1018C000DBB25E2B3DD89046224B1B789DF8006022
:1018D0003344802B39DC1F4B5B789DF801904B44DF
:1018E000402B34DC00251BE01A4B1878597829442A
:1018F0002044C9B2C0B2FFF7BDFF0134A6420EDDDD
:1019000007FA04F313F4004FEED0124B187859780D
:1019100029442044C9B2C0B2FFF7BCFFEDE701354E
:10192000A94508DDA8F1200303FB0953019A32F809
:1019300013700024E2E7074B1A7816441E704046E5
:1019400000E0002003B0BDE8F0830020FAE70020AB
:10195000F8E700BF4005002010B582B06B4683E871
:1019600003001446094A93E8030082E8030000E0FC
:10197000013422783AB102AB13E90300FFF798FF74
:1019800022789042F4D0104602B010BD38050020F5
:10199000014B1870597070474005002008B53F2072
:1019A000FFF70DFF0020FFF717FF4020FFF7FFFEB6
:1019B000A120FFF700FFC820FFF70AFF0021012048
:1019C000FFF713FF7F20FFF7CEFEFFF7D5FEFFF7EF
:1019D000D8FE08210020FFF718FF1420FFF7BAFEF9
:1019E000FFF7D4FEFFF736FF00210846FFF7D0FFD0
:1019F00008BD000010F0800F50D12DE9F84F0546CA
:101A0000884691469A4612F0800F45D13F2943D827
:101A10003F2B41D8904201D881461546D04502D887
:101A20005346C2469846CAF3C707C8F3C7063846A6
:101A30002CE00AF007031AE008F007041AE001EBB3
:101A4000C01C4FF0010E0EFA03FB154A12F80CE011
:101A50002EEA0B0E02F80CE00133DBB2A342EED902
:101A60000131C9B28D420FD3B842E2D00023B04257
:101A7000E2D00724002BF1D1072CEFD101EBC013EA
:101A8000074A0024D454EBE70130C0B2B04201D879
:101A90004946E7E7FFF7C4FEBDE8F88F704700BF8F
:101AA0004405002008B501211120FFF771FF094B03
:101AB000094A93E80300FFF74FFF23210120FFF7B6
:101AC00067FF064B064A93E80300FFF745FFFFF761
:101AD000A7FE08BD04000020C47000080C00002010
:101AE000D070000800B583B0114B9A6942F0010232
:101AF0009A619A6902F001020092009ADA6942F052
:101B00008052DA61DB6903F080530193019B00226C
:101B10000F216FF0010000F0FDFA064A536823F030
:101B2000E06343F00073536003B05DF804FB00BF53
:101B3000001002400000014030B589B00446214B3E
:101B4000DA6942F00402DA61DB6903F0040301930D
:101B5000019B02A903A802F0E9F8069BCBB902F0A9
:101B6000C5F803461848A0FB03239B0C013B17480C
:101B7000174A026040F2E732C2604360002303610B
:101B80008360836102F0B6FA054630B1284609B099
:101B900030BD02F0ABF84300E4E70C4802F062F914
:101BA00005460028F2D11E2000F0ECFA0F2C01D9D6
:101BB0000125EBE7002221461E2000F0ABFA054B81
:101BC0001C60E3E70010024083DE1B434409002051
:101BD000000800401C000020FEE7FEE7FEE7FEE7ED
:101BE000FEE7704708B5024802F08DF908BD00BF56
:101BF0008C09002008B5024802F085F908BD00BF35
:101C00004409002008B5024802F0A2FE08BD00BF4A
:101C10005C0A002008B5024802F09AFE08BD00BF29
:101C2000A40A00207047000000B58BB00023069383
:101C300007930893099304930593009301930293E8
:101C4000039320484FF08042026047224260836045
:101C50004FF6FF72C26003618023836102F04AFA8B
:101C600008BB4FF48053069306A9164802F034FBD4
:101C7000E0B9144802F06AFAD8B900230493059336
:101C800004A9104802F0C8FCB0B900220092012358
:101C900001930292039269460A4802F0AFFA70B9C2
:101CA0000BB05DF804FBFFF78DFCDAE7FFF78AFC69
:101CB000DFE7FFF787FCE0E7FFF784FCE5E7FFF7E6
:101CC00081FCEDE78C09002000B587B0002302936A
:101CD0000393049305930368B3F1804F02D007B0D8
:101CE0005DF804FB03F50433DA6942F00102DA61BE
:101CF000DA6902F001020092009A9A6942F0040245
:101D00009A619B6903F004030193019B01230293F1
:101D100002A9064800F0B4FA002205211C2000F0B8
:101D2000F9F91C2000F02EFAD9E700BF00080140A5
:101D300008B50A480A4B03604FF4E13343600023BF
:101D40008360C36003610C2242618361C36102F05E
:101D500043FD00B908BDFFF735FCFBE75C0A002036
:101D60000038014008B50D480D4B03604FF4E133D6
:101D7000436000238360C36003610C22426183617E
:101D8000C36102F029FD28B901220649034802F087
:101D90003EFF08BDFFF716FCF6E700BFA40A0020CF
:101DA00000440040580A002030B589B00023049355
:101DB0000593069307930368344A934204D0344A48
:101DC000934233D009B030BD324B9A6942F480421D
:101DD0009A619A6902F480420092009A9A6942F0EC
:101DE00004029A619B6903F004030193019B4FF481
:101DF000007304930223059303230793264D04A93C
:101E0000284600F03DFA4FF48063049300240594C3
:101E1000069404A9284600F033FA2246052125201D
:101E200000F078F9252000F0ADF9CBE7194BDA691D
:101E300042F40032DA61DA6902F400320292029A64
:101E40009A6942F004029A619B6903F004030393C8
:101E5000039B0423049302230593032307930E4D4E
:101E600004A9284600F00CFA0823049300240594E2
:101E7000069404A9284600F003FA224605212620EC
:101E800000F048F9262000F07DF99BE7003801407A
:101E90000044004000100240000801404E4BB3F8DF
:101EA00000C0BCF1010F08D9002211460CF1FF332C
:101EB0009A4280F2908010B568E07047481C474C09
:101EC000205C422866D1464B1B78DBB2012B03D144
:101ED000414B00221A8074E00121424B186802F045
:101EE000BDFF3F4B01221A70F2E7481C3B4C205CBF
:101EF000422851D13A4B1B78DBB2022B03D1364B2F
:101F000000221A805DE00121364B186802F0A6FF1E
:101F1000334B02221A70F2E7481C304C205C4228F6
:101F20003CD12F4B1B78DBB2032B03D12A4B002271
:101F30001A8046E001212B4B186802F08FFF284BD6
:101F400003221A70F2E7481C244C205C422827D157
:101F5000234B1B78DBB2042B03D11F4B00221A80CA
:101F60002FE001211F4B186802F078FF1C4B042260
:101F70001A70F2E70131194B5B5C532B19D0013217
:101F800092B211460CF1FF339A421ADA134B9B5C62
:101F9000512B93D05A2BA8D0592BBDD0482BD2D03F
:101FA000512BE7D05A2BE5D0592BE3D0482BE6D163
:101FB000E0E70B4B1B78DBB2052B03D1064B00226D
:101FC0001A8010BD0121074B186802F047FF044B2F
:101FD00005221A70F2E77047540A0020D409002045
:101FE000590A00208404002008B502680C4B9A426C
:101FF00000D008BD0B490A88531C9BB20B800A49CC
:1020000008780A4988547F2B02D9064B00221A808F
:10201000FFF744FF01220449054802F0F8FDE8E714
:1020200000440040540A0020580A0020D40900202F
:10203000A40A0020FFF7F6FD0B480C490C4A0023C8
:1020400002E0D458C4500433C4188C42F9D3094A6E
:10205000094C002301E013600432A242FBD304F0D8
:1020600069FEFFF7E3FA70470000002054040020E7
:102070007C840008540400203C240020FEE700007B
:1020800008B5074A136843F010031360032000F0FB
:102090002FF80F20FFF750FDFFF724FD002008BDAB
:1020A00000200240034A1168034B1B780B44136065
:1020B000704700BFEC0A002018000020014B186890
:1020C000704700BFEC0A002038B50446FFF7F6FF62
:1020D0000546B4F1FF3F02D0044B1B781C44FFF7C8
:1020E000EDFF401BA042FAD338BD00BF180000200E
:1020F000074AD36823F4E0631B041B0C000200F4BE
:10210000E060034343F0BF6343F40033D3607047A0
:1021100000ED00E000B5194BDB68C3F30223C3F107
:10212000070CBCF1040F28BF4FF0040C03F1040EA0
:10213000BEF1060F18D9033B4FF0FF3E0EFA0CFC20
:1021400021EA0C0199400EFA03F322EA0303194332
:1021500000280BDB0901C9B200F1604000F56140C5
:1021600080F800135DF804FB0023E5E700F00F00A2
:102170000901C9B2024B1954F4E700BF00ED00E0B9
:1021800014ED00E0002807DB00F01F0240090123E6
:102190009340024A42F82030704700BF00E100E05F
:1021A00090F82130DBB2022B06D004238363002396
:1021B00080F82030012070470268136823F00E0376
:1021C00013600268136823F001031360036CC16B92
:1021D000012202FA03F34B6080F82120002380F8EB
:1021E000203018467047000008B590F82130DBB267
:1021F000022B03D004238363012008BD0268136807
:1022000023F00E0313600268136823F001031360C8
:102210000368194A934214D0143293421FD01432E7
:1022200093421ED0143293421ED0143293421ED0D9
:102230001432934202D04FF0807203E04FF48012C8
:1022400000E001220D4B5A60012380F82130002369
:1022500080F82030436B6BB198470020CDE7102207
:10226000F0E74FF48072EDE74FF48052EAE74FF465
:102270008032E7E70020C0E708000240000002408B
:1022800070B582B00024A446A6E0804DAA4210D0CA
:1022900007D97F4DAA420CD005F58035AA4208D057
:1022A00013E0A5F58015AA4203D005F57025AA42D2
:1022B00007D18A68002A58D0012A51D043610824E6
:1022C00003E0A5F58015AA42F3D0BEF1FF0F4ED86A
:1022D0000646BEF1FF0F4CD84FEA8C0233680F253B
:1022E000954023EA050304FA02F2134333604B6876
:1022F00013F0805F6ED0674B9A6942F001029A61D9
:102300009B6903F001030193019B4FEA9C02951C1A
:10231000614B53F825600CF003039D000F23AB4085
:1023200026EA03065D4B984229D003F58063984264
:1023300000F08E8003F58063984200F08B8003F5F7
:102340008063984219D004231AE0CC68BDE7CC68BA
:102350000434BAE7CC680834B7E7CC680C34B4E787
:1023600003610824B1E70024AFE70424ADE7061DAC
:10237000AFE7ACF108029200B0E7032300E00023CE
:10238000AB4033430232444D45F822304B6813F4DE
:10239000801F61D0424A936843EA0E0393604B6802
:1023A00013F4001F5ED03E4AD36843EA0E03D360A5
:1023B0004B6813F4003F5BD0394A536843EA0E037D
:1023C00053604B6813F4803F58D0354A136843EA92
:1023D0000E0313600CF1010C0A6832FA0CF353D0AF
:1023E000012303FA0CF302EA030E33EA0202F1D1ED
:1023F0004A68122A3FF649AF122A3FF666AF01A596
:1024000055F822F0B32200084B230008552300089A
:1024100067230008CB220008CB220008CB2200084B
:10242000CB220008CB220008CB220008CB220008D8
:10243000CB220008CB220008CB220008CB220008C8
:10244000CB220008CB2200084F2300085B230008A2
:10245000012395E7022393E7114A936823EA0E03C9
:1024600093609CE70E4AD36823EA0E03D3609FE78C
:102470000B4A536823EA0E035360A2E7084A136825
:1024800023EA0E031360A5E702B070BD000022101E
:10249000000031100010024000000140000801401F
:1024A000000401400AB101617047090401617047ED
:1024B000C36801EA030221EA030141EA0241016122
:1024C000704703685A6912F4806F01D10020704789
:1024D0006FF480625A6100230363202280F83D205C
:1024E00080F83E30026C42F00402026480F83C3016
:1024F000012070472DE9F04106460C4617469846E4
:102500003BE0FFF7DBFD069BC01A404502D8B8F15F
:10251000000F32D1012D18D033689B6924EA0303E0
:102520009BB2B3FA83F35B099F4226D10023336346
:10253000202286F83D2086F83E30326C42F02002A0
:10254000326486F83C30012027E033685B6924EA76
:1025500003039BB2B3FA83F35B09E5E733685B6976
:1025600024EA030C1FFA8CFCBCFA8CFC4FEA5C1CBE
:10257000674511D1B8F1FF3FC3D1C4F30745012D21
:10258000ECD033689B6924EA030C1FFA8CFCBCFA7C
:102590008CFC4FEA5C1CEBE70020BDE8F0812DE9E4
:1025A000F84305460E469046994653E01A6842F4B1
:1025B00000721A602B686FF480625A6100232B63EB
:1025C000202285F83D2085F83E302A6C42F0040236
:1025D0002A6485F83C3001204AE0FFF76FFDA0EB4C
:1025E0000900404502D8B8F1000F33D1012F17D0B0
:1025F0002B689B6926EA03039BB2003B18BF0123AB
:1026000043B300232B63202285F83D2085F83E301C
:102610002A6C42F020022A6485F83C30012027E031
:102620002B685B6926EA03039BB2003B18BF0123BA
:10263000E6E72B689C6926EA0404A4B2003C18BFB4
:102640000124A4B12B685A6912F4806FAED1B8F19D
:10265000FF3FC2D1C6F30747012FEAD12B685C695F
:1026600026EA0404A4B2003C18BF0124E9E70020D4
:10267000BDE8F883F0B583B004460D4616461F4604
:10268000C36A082B0DD0012B0BD013F5803F08D067
:10269000036B122B0AD10268136843F48073136032
:1026A00004E02268136843F4807313600097334694
:1026B00000224FF001112046FFF71CFF80B923696B
:1026C000B3F5804F16D1236805F0FE051D613B462A
:1026D000324613492046FFF762FFF8B903B0F0BD58
:1026E00023681B6813F4807F02D04FF400732364C7
:1026F0000320F3E7EB11226803F0060343F0F00335
:1027000013613B46324607492046FFF748FF18B998
:102710002368EDB21D61DAE70120DFE70120DDE784
:1027200002000100080001002DE9F04184B00446D8
:102730000D4616461F46C26A01680B6843F4806363
:102740000B60082A0DD0012A0BD012F5803F08D06B
:10275000036B112B0AD10268136843F48073136072
:1027600004E02268136843F48073136000973346D3
:1027700000224FF001112046FFF7BCFE98B92369F3
:10278000B3F5804F19D1236845F00105EDB21D6105
:102790003B4632462A492046FFF701FF00284CD12C
:1027A00004B0BDE8F08123681B6813F4807F02D079
:1027B0004FF4007323640320F2E74FEAE51808F0B2
:1027C0000608236848F0F0021A613B4632461D496C
:1027D0002046FFF7E4FE08B10120E1E72368EDB2EF
:1027E0001D613B46324616492046FFF7D8FE08B128
:1027F0000120D5E700220392236859690391996962
:1028000003910399196841F4807119600097334668
:102810004FF001112046FFF76DFE20B9226848F005
:10282000F1031361B4E723681B6813F4807F02D0BF
:102830004FF4007323640320B2E70120B0E700BF28
:10284000020001000800010070B504460D4616465E
:1028500023685B6913F0800F21D12046FFF731FE1A
:10286000F8B9B5F1FF3FF3D0FFF728FC801BA84271
:1028700001D8002DECD123685B6913F0800FE7D1FC
:1028800000232363202284F83D2084F83E30226C0C
:1028900042F02002226484F83C30012000E0002055
:1028A00070BD0120FCE700002DE9F04385B004462F
:1028B0000D4691461F46DDF830800D9E036819686D
:1028C00041F4807119600096434600224FF00111D7
:1028D000FFF710FE60B9236805F0FE051D61334661
:1028E000424626492046FFF75AFE68B1012008E01B
:1028F00023681B6813F4807F02D04FF400732364B5
:10290000032005B0BDE8F0830023039323685A69D0
:1029100003929B690393039B324641462046FFF78F
:1029200093FF30B9012F0FD123685FFA89F61E613A
:10293000E7E7236C042B01D00120E2E7226813684B
:1029400043F400731360F7E723684FEA19221A6112
:10295000324641462046FFF777FF20B923685FFAE9
:1029600089F61E61CDE7236C042B01D00120C8E756
:102970002268136843F400731360F7E70200010054
:102980002DE9F04784B004460D46164699460C9F43
:10299000DDF834800268136843F4806313600368D1
:1029A000196841F480711960CDF800803B4600221F
:1029B0004FF00111FFF79EFD70B95FFA85FA2368A9
:1029C00005F0FE051D6143463A4641492046FFF7A2
:1029D000E6FD68B1012008E023681B6813F4807FDE
:1029E00002D04FF400732364032004B0BDE8F087E5
:1029F0000023039323685A6903929B690393039B03
:102A0000424639462046FFF71FFF80B9B9F1010F52
:102A100018D12368F6B21E61424639462046FFF7B8
:102A200013FF68B3236C042B24D00120DDE7236C53
:102A3000042B01D00120D8E72268136843F4007307
:102A40001360F7E72368320A1A6142463946204686
:102A5000FFF7FAFE18B92368F6B21E61DCE7236CB3
:102A6000042B01D00120C0E72268136843F40073EF
:102A70001360F7E72268136843F400731360D4E728
:102A80002268136843F480731360CDF800803B46DE
:102A900000224FF001112046FFF72CFD68B9226893
:102AA0004AF00103136143463A4609492046FFF7BD
:102AB00076FD002899D0012097E723681B6813F45E
:102AC000807F02D04FF40073236403208DE700BFA2
:102AD0000200010070B504460D46164623685B6986
:102AE00013F0040F21D12046FFF7EBFCF8B9B5F144
:102AF000FF3FF3D0FFF7E2FA801BA84201D8002D78
:102B0000ECD123685B6913F0040FE7D10023236342
:102B1000202284F83D2084F83E30226C42F02002CE
:102B2000226484F83C30012000E0002070BD0120C8
:102B3000FCE770B504460D46164614E06FF010022F
:102B40005A6100232363202284F83D2084F83E301C
:102B5000226C226484F83C30012025E023685B6904
:102B600013F0400F10D02368586910F0400F1AD1AD
:102B7000586910F0100FE1D1FFF7A0FA801BA842AE
:102B8000ECD8002DEFD1E9E700232363202284F85D
:102B90003D2084F83E30226C42F02002226484F80A
:102BA0003C30012000E0002070BD0000002800F053
:102BB000CC8070B5044690F83D30002B77D02423AC
:102BC00084F83D302268136823F001031360226803
:102BD000136843F4004313602268136823F400432E
:102BE000136001F083F862685A4B9A4264D85A4BDA
:102BF00098428CBF00230123002B40F0A880574946
:102C0000A1FB00318B0C25686A6822F03F0242EA82
:102C100091426A6021680A6A22F03F0266684D4D5F
:102C2000AE424FD8013313430B622168CA6922F4C4
:102C30004F4222F0FF026668464B9E424CD8431E2C
:102C40007600B3FBF6F3013340F6FC70034278D014
:102C5000C3F30B031343CB6121680B6823F0C0035C
:102C6000E269206A024313430B6021688B6823F4F6
:102C7000034323F0FF032269E068024313438B60A0
:102C80002168CB6823F0FF036269A0690243134304
:102C9000CB602268136843F00103136000202064B6
:102CA000202384F83D30206384F83E0070BD80F816
:102CB0003C30FEF725FC82E7294B98428CBF00236D
:102CC000012399E74FF4967505FB03F3254DA5FB0A
:102CD00003539B090133A6E7A368BBB9451E06EB66
:102CE000460CB5FBFCF50135C5F30B05B5FA85F5CA
:102CF0006D0945BBC3B9013806EB4603B0FBF3F3DE
:102D00000133C3F30B0343F40043A3E7451E06EB73
:102D1000860C0CEB8C0CB5FBFCF50135C5F30B05F3
:102D2000B5FA85F56D09E4E7013806EB860303EB98
:102D30008303B0FBF3F30133C3F30B0343F44043CA
:102D400088E7042386E7012384E7012070470120F8
:102D5000ACE700BFA08601007F841E0083DE1B431A
:102D6000FF083D00D34D62102DE9F04385B00446C5
:102D70000F46914698460C9EFFF7A0F9054694F839
:102D80003D00C0B2202804D00227384605B0BDE877
:102D9000F0830095192301224F492046FFF7AAFB33
:102DA000002840F0928094F83C30012B00F08F8096
:102DB000012384F83C3023681A6812F0010F03D114
:102DC0001A6842F001021A602268136823F4006353
:102DD0001360212384F83D30102384F83E30002313
:102DE0002364C4F82490A4F82A80638D23853B4B88
:102DF000E3622B46324639462046FFF73BFC074646
:102E0000002866D10023039323685A6903929B69C3
:102E10000393039B11E0236C042B01D00127B4E73B
:102E20002268136843F400731360F7E72A463146BB
:102E30002046FFF74FFE00282ED1238D002B36D0E1
:102E40002A4631462046FFF7FFFC0028E3D1626A9C
:102E5000236812781A61606A431C6362618D89B2CB
:102E6000013989B26185238D013B9BB2238522689C
:102E7000516911F0040FD9D0002BD7D043781361DA
:102E8000636A01336362638D9BB2013B9BB26385CE
:102E9000238D013B2385C9E7236C042B01D0012737
:102EA00073E72268136843F400731360F7E722683E
:102EB000136843F400731360202384F83D3000232B
:102EC00084F83E3084F83C305FE702275DE7022754
:102ED0005BE7012759E700BF020010000000FFFF79
:102EE0002DE9F04389B004460F4691469846109E5E
:102EF00000230793FFF7E2F8054694F83D00C0B2BF
:102F0000202804D00227384609B0BDE8F083009598
:102F10001923012280492046FFF7ECFA002840F0EF
:102F20007A8194F83C30012B00F07781012384F8FA
:102F30003C3023681A6812F0010F03D11A6842F07E
:102F400001021A602268136823F4006313602223CD
:102F500084F83D30102384F83E3000232364C4F805
:102F60002490A4F82A80638D23856C4BE3622B4662
:102F7000324639462046FFF7D7FB0746002840F087
:102F80004E81238D5BB9039323685A6903929A6932
:102F90000392039A1A6842F400721A60F3E0012B5C
:102FA0000FD0022B21D02268136843F48063136092
:102FB0000023069323685A6906929B690693069B31
:102FC000E1E02268136823F48063136072B6002383
:102FD000049323685A6904929A690492049A1A68BD
:102FE00042F400721A6062B6CDE02268136843F4BE
:102FF0000063136072B60023059323685A69059233
:103000009A690592059A1A6822F480621A6062B67B
:10301000B9E02A4631462046FFF78BFD002840F0F4
:10302000008123681A69636A1A70636A01336362F4
:10303000238D013B2385638D9BB2013B9BB263854E
:10304000A1E000953346002235492046FFF752FAA9
:10305000002840F0EA802268136823F4806313603C
:1030600072B623681A69636A1A70636A013363620D
:10307000238D013B2385638D9BB2013B9BB263850E
:10308000284B1B68DB08284AA2FB03231B0A03EB1F
:103090008303C3EBC303079307990139079107998A
:1030A000002928D023685A6912F0040FF4D01A6856
:1030B00042F400721A6023681A69636A1A70636ABC
:1030C00001336362238D013B2385638D9BB2013BFA
:1030D0009BB2638562B623681A69636A1A70636A71
:1030E00001336362238D013B2385638D9BB2013BDA
:1030F0009BB2638547E000232363202284F83D20B0
:1031000084F83E30226C42F02002226462B684F8D9
:103110003C300127F7E600BF020010000000FFFF6F
:10312000040001001400002089B5F8142A46314635
:103130002046FFF7FEFC002879D123681A69636AEC
:103140001A70636A01336362228D013A92B222855A
:10315000638D9BB2013B9BB263852368596911F073
:10316000040F10D0032A48D023681A69636A1A70C2
:10317000636A01336362238D013B2385638D9BB2B8
:10318000013B9BB26385218D00293BD00329CDD81B
:1031900001293FF43EAF02297FF453AF0095334637
:1031A000002224492046FFF7A5F900283BD172B63A
:1031B0002268136843F40073136023681A69636A12
:1031C0001A70636A01336362238D013B2385638D2B
:1031D0009BB2013B9BB2638562B623681A69636A3E
:1031E0001A70636A01336362238D013B2385638D0B
:1031F0009BB2013B9BB26385C5E71A6822F48062EB
:103200001A60B1E7202384F83D30002384F83E3073
:1032100084F83C3077E6022775E6022773E601273B
:1032200071E601276FE601276DE601276BE60127AE
:1032300069E600BF040001002DE9F04383B00446B5
:103240000F46904699460C9EFEF738FF054694F8C7
:103250003D00C0B2202803D0022003B0BDE8F083B7
:103260000095192301224B492046FFF743F9002816
:1032700040F0898094F83C30012B00F086800123D7
:1032800084F83C3023681A6812F0010F03D11A68E1
:1032900042F001021A602268136823F4006313608D
:1032A000212384F83D30402384F83E3000232364FA
:1032B0000A9B6362BDF82C306385638D2385364B92
:1032C000E362019500964B46424639462046FFF799
:1032D000EBFA00285BD1238D002B35D02A463146EE
:1032E0002046FFF7B1FA20BB626A236812781A61A0
:1032F000626A531C6362218D013989B22185638D15
:103300009BB2013B9BB263852368586910F0040FA0
:10331000E1D00029DFD052781A61636A0133636219
:10332000238D013B2385638D9BB2013B9BB263855B
:10333000D1E7236C042B01D001208EE722681368AB
:1033400043F400731360F7E72A4631462046FFF73F
:10335000C1FB50B1236C042B01D001207DE7226812
:10336000136843F400731360F7E72268136843F4AB
:1033700000731360202384F83D30002384F83E302E
:1033800084F83C3069E7022067E7022065E7012006
:1033900063E700BF020010000000FFFF2DE9F043CB
:1033A00089B004460F4690469946129E0023079323
:1033B000FEF784FE054694F83D00C0B2202804D0F4
:1033C0000227384609B0BDE8F08300951923012291
:1033D00081492046FFF78EF8002840F0728194F86A
:1033E0003C30012B00F06F81012384F83C302368CE
:1033F0001A6812F0010F03D11A6842F001021A6034
:103400002268136823F400631360222384F83D309C
:10341000402384F83E3000232364109B6362BDF890
:1034200044306385638D23856C4BE3620195009680
:103430004B46424639462046FFF7A2FA0746002887
:1034400040F04381238D5BB9039323685A6903924B
:103450009A690392039A1A6842F400721A60EDE0C6
:10346000012B0FD0022B21D02268136843F4806314
:1034700013600023069323685A6906929B6906939A
:10348000069BDBE02268136823F48063136072B646
:103490000023049323685A6904929A690492049A57
:1034A0001A6842F400721A6062B6C7E022681368B4
:1034B00043F40063136072B60023059323685A69CE
:1034C00005929A690592059A1A6822F480621A6038
:1034D00062B6B3E02A4631462046FFF72AFB0028B1
:1034E00040F0F58023681A69636A1A70636A0133D1
:1034F0006362238D013B2385638D9BB2013B9BB2AD
:1035000063859BE000953346002235492046FEF74F
:10351000F1FF002840F0DF802268136823F4806305
:10352000136072B623681A69636A1A70636A01339A
:103530006362238D013B2385638D9BB2013B9BB26C
:103540006385284B1B68DB08274AA2FB03231B0A61
:1035500003EB8303C3EBC3030793079B013B079371
:10356000079B002B28D023685A6912F0040FF4D06F
:103570001A6842F400721A6023681A69636A1A7042
:10358000636A01336362238D013B2385638D9BB2A4
:10359000013B9BB2638562B623681A69636A1A703D
:1035A000636A01336362238D013B2385638D9BB284
:1035B000013B9BB2638541E02363202284F83D20D8
:1035C00084F83E30226C42F02002226462B684F815
:1035D0003C300127F5E600BF020010000000FFFFAD
:1035E000040001001400002089B5F8142A46314671
:1035F0002046FFF79EFA00286FD123681A69636A94
:103600001A70626A531C6362238D013B2385638DAC
:103610009BB2013B9BB263852368596911F0040F8B
:103620000CD01B695370636A01336362238D013BC5
:103630002385638D9BB2013B9BB26385238D002B59
:1036400036D0032BD2D8012B3FF444AF022B7FF4AA
:1036500059AF00953346002221492046FEF74AFF24
:10366000002836D172B62268136843F400731360E1
:1036700023681A69636A1A70636A01336362238D6F
:10368000013B2385638D9BB2013B9BB2638562B690
:1036900023681A69636A1A70636A01336362238D4F
:1036A000013B2385638D9BB2013B9BB26385C5E7DC
:1036B000202384F83D30002384F83E3084F83C30E9
:1036C0007FE602277DE602277BE6012779E60127D0
:1036D00077E6012775E6012773E6012771E600BF4B
:1036E0000400010082B0084B1B68084AA2FB0323B8
:1036F0005B0A00FB03F3019300BF019B5A1E01927A
:10370000002BF9D102B0704714000020D34D621095
:10371000002800F0F18170B582B00446036813F010
:10372000010F2CD0994B5B6803F00C03042B1DD0C8
:10373000964B5B6803F00C03082B12D06368B3F55B
:10374000803F41D0002B55D103F1804303F5043372
:103750001A6822F480321A601A6822F480221A60F1
:1037600037E08A4B5B6813F4803FE7D0874B1B68D8
:1037700013F4003F03D06368002B00F0BF8123687F
:1037800013F0020F75D0814B5B6813F00C0F5FD004
:103790007E4B5B6803F00C03082B54D02369002B8D
:1037A00000F08A807A4B01221A60FEF787FC0546FA
:1037B000764B1B6813F0020F75D1FEF77FFC401BA0
:1037C0000228F5D903209EE1704A136843F4803340
:1037D0001360636843B3FEF771FC05466B4B1B68CF
:1037E00013F4003FCBD1FEF769FC401B6428F5D9E8
:1037F000032088E1B3F5A02F09D0644B1A6822F4A6
:1038000080321A601A6822F480221A60E1E703F11C
:103810008043A3F53C331A6842F480221A601A6888
:1038200042F480321A60D4E7FEF748FC0546574B55
:103830001B6813F4003FA2D0FEF740FC401B642835
:10384000F5D903205FE1514B5B6813F4803FA5D1AC
:103850004E4B1B6813F0020F03D02369012B40F07D
:103860004F814A4A136823F0F803616943EAC103B0
:103870001360236813F0080F33D0A369002B5CD0CA
:10388000434B0122C3F88024FEF718FC05463F4B4A
:103890005B6A13F0020F21D1FEF710FC401B0228D7
:1038A000F5D903202FE1394A136823F0F803616941
:1038B00043EAC1031360DCE7354B00221A60FEF7D0
:1038C000FDFB0546314B1B6813F0020FD1D0FEF70C
:1038D000F5FB401B0228F5D9032014E10120FFF776
:1038E00001FF236813F0040F00F09680274BDB697B
:1038F00013F0805F34D1254BDA6942F08052DA61EF
:10390000DB6903F080530193019B0125214B1B6868
:1039100013F4807F26D0E368012B3DD0002B53D1D8
:1039200003F1804303F504331A6A22F001021A629C
:103930001A6A22F004021A6233E0154B0022C3F81F
:103940008024FEF7BBFB0546104B5B6A13F0020FA9
:10395000C7D0FEF7B3FB401B0228F5D90320D2E005
:103960000025D3E70B4A136843F480731360FEF716
:10397000A5FB0646074B1B6813F4807FCBD1FEF7EF
:103980009DFB801B6428F5D90320BCE00010024099
:1039900000004242007000405F4A136A43F0010396
:1039A0001362E36833B3FEF789FB06465A4B1B6A82
:1039B00013F0020F2FD1FEF781FB801B41F28833F9
:1039C0009842F3D903209EE0052B09D0524B1A6A86
:1039D00022F001021A621A6A22F004021A62E0E777
:1039E0004D4B1A6A42F004021A621A6A42F001024E
:1039F0001A62D6E7FEF762FB0646474B1B6A13F0D6
:103A0000020F08D0FEF75AFB801B41F28833984220
:103A1000F3D9032077E0E5B9E369002B72D03E4A81
:103A2000526802F00C02082A56D0022B17D03B4BEA
:103A300000221A66FEF742FB0446374B1B6813F060
:103A4000007F47D0FEF73AFB001B0228F5D9032080
:103A500059E0314AD36923F08053D361DCE72F4B1F
:103A600000221A66FEF72AFB05462B4B1B6813F053
:103A7000007F06D0FEF722FB401B0228F5D9032069
:103A800041E0236AB3F5803F1AD023494B6823F401
:103A90007413226A606A024313434B601F4B012276
:103AA0001A66FEF70BFB04461B4B1B6813F0007FE6
:103AB0000ED1FEF703FB001B0228F5D9032022E0FC
:103AC000154A536823F40033A1680B435360DCE7C5
:103AD000002018E0002016E0012B16D00E4B5B688A
:103AE00003F48031226A914211D103F47013626AA7
:103AF00093420ED1002006E001207047012002E031
:103B0000012000E0002002B070BD0120FBE7012091
:103B1000F9E70120F7E700BF001002400000424231
:103B20000F4B5B6803F00C02082A01D00D48704768
:103B3000C3F383420C49885C13F4803F0BD0084BDD
:103B40005B68C3F34043094AD35C064A02FB00F0BA
:103B5000B0FBF3F07047064B03FB00F0704700BF6B
:103B60000010024000127A004084000850840008CF
:103B700000093D00002800F0A08070B50D46044605
:103B8000524B1B6803F007038B420BD24F4A13685A
:103B900023F007030B431360136803F007038B4202
:103BA00040F08D80236813F0020F17D013F0040F3C
:103BB00004D0474A536843F4E0635360236813F02A
:103BC000080F04D0424A536843F460535360404A9C
:103BD000536823F0F003A1680B435360236813F08C
:103BE000010F31D06368012B20D0022B25D0384A39
:103BF000126812F0020F64D035494A6822F00302BD
:103C000013434B60FEF75AFA0646314B5B6803F0EC
:103C10000C036268B3EB820F16D0FEF74FFA801BDD
:103C200041F288339842F0D9032045E0284A1268CF
:103C300012F4003FE0D101203EE0254A126812F064
:103C4000007FD9D1012037E0204B1B6803F0070328
:103C5000AB420AD91D4A136823F007032B431360B4
:103C6000136803F00703AB422DD1236813F0040F50
:103C700006D0174A536823F4E063E1680B435360AE
:103C8000236813F0080F07D0114A536823F46053D8
:103C9000216943EAC1035360FFF742FF0C4B5B68A5
:103CA000C3F303130B4AD35CD8400B4B18600B4B88
:103CB0001868FDF741FF002070BD0120704701200A
:103CC000FAE70120F8E70120F6E700BF00200240F4
:103CD0000010024028840008140000201C0000206E
:103CE000014B1868704700BF1400002008B5FFF7AB
:103CF000F7FF044B5B68C3F30223034AD35CD8404D
:103D000008BD00BF001002403884000808B5FFF766
:103D1000E7FF044B5B68C3F3C223034AD35CD8407C
:103D200008BD00BF00100240388400080F23036064
:103D30000B4B5A6802F0030242605A6802F0F0022C
:103D400082605A6802F4E062C2605B68DB0803F4D8
:103D5000E0630361034B1B6803F007030B607047CC
:103D6000001002400020024010B4036A046A24F0EC
:103D700001040462846924F0F00C4CEA021223F07E
:103D80000A030B438261036210BC704730B4056ABA
:103D9000046A24F010040462846924F4407C4CEA30
:103DA000022C2CF4704C1B039BB243EA0C0325F04D
:103DB000A005090101F0A00129438361016230BC23
:103DC000704710B4036A046A24F010040462846922
:103DD00024F4704C4CEA023223F0A00343EA0113AE
:103DE0008261036210BC704730B4056A046A24F42F
:103DF00080740462C46924F0030C4CEA020C2CF0B9
:103E0000F00C1B01DBB243EA0C0325F40075090238
:103E100001F400712943C361016230BC704730B4C2
:103E2000056A046A24F480540462C46924F4407C62
:103E30004CEA022C2CF4704C1B039BB243EA0C039B
:103E400025F40055090301F400512943C3610162BF
:103E500030BC7047836823F070030B4343F00703C3
:103E60008360704790F83D30DBB2012B27D10223ED
:103E700080F83D300268D36843F00103D3600368E3
:103E8000114A934210D0B3F1804F0DD0A2F5943275
:103E9000934209D002F58062934205D01A6842F03D
:103EA00001021A60002070479A6802F00702062A91
:103EB00007D01A6842F001021A6000207047012002
:103EC00070470020704700BF002C014070470C294C
:103ED00014D8DFE801F0071313130A1313130D139B
:103EE000131310000368586B70470368986B704792
:103EF0000368D86B70470368186C704700207047E0
:103F000070477047704710B5044603681A6912F08D
:103F1000020F11D0DA6812F0020F0DD06FF002021A
:103F20001A610123037703689B6913F0030F70D0B4
:103F3000FDF72EF90023237723681A6912F0040F86
:103F400012D0DA6812F0040F0ED06FF004021A617A
:103F50000223237723689B6913F4407F5FD02046B8
:103F6000FDF716F90023237723681A6912F0080F6A
:103F700012D0DA6812F0080F0ED06FF008021A6142
:103F8000042323772368DB6913F0030F4ED0204608
:103F9000FDF7FEF80023237723681A6912F0100F4B
:103FA00012D0DA6812F0100F0ED06FF010021A6102
:103FB000082323772368DB6913F4407F3DD0204634
:103FC000FDF7E6F80023237723681A6912F0010F42
:103FD00003D0DA6812F0010F36D123681A6912F0A3
:103FE000800F03D0DA6812F0800F34D123681A6989
:103FF00012F0400F03D0DA6812F0400F32D123687C
:104000001A6912F0200F03D0DA6812F0200F30D1B5
:1040100010BDFFF775FF2046FFF773FF8AE72046C4
:10402000FFF76EFF2046FFF76CFF9BE72046FFF788
:1040300067FF2046FFF765FFACE72046FFF760FF0C
:104040002046FFF75EFFBDE76FF001021A612046D0
:10405000FDF7ACFAC1E76FF080021A61204600F06C
:1040600012FBC3E76FF040021A612046FFF74AFFD8
:10407000C5E76FF020021A61204600F003FBC7E796
:1040800003681B4A90420AD0B0F1804F07D0A2F5D6
:104090009432904203D002F58062904203D123F023
:1040A00070034A681343124A90420AD0B0F1804F1D
:1040B00007D0A2F59432904203D002F5806290427C
:1040C00003D123F44073CA68134323F080034A6981
:1040D000134303608B68C3620B688362044B98428E
:1040E00002D00123436170470B690363F9E700BF06
:1040F000002C014040B310B5044690F83D30F3B1B8
:10410000022384F83D30214651F8040BFFF7B8FF35
:10411000012384F8463084F83E3084F83F3084F838
:10412000403084F8413084F8423084F8433084F8D9
:10413000443084F8453084F83D30002010BD80F8CC
:104140003C30FDF7C1FDDBE70120704740B310B5FF
:10415000044690F83D30F3B1022384F83D30214607
:1041600051F8040BFFF78CFF012384F8463084F8E4
:104170003E3084F83F3084F8403084F8413084F891
:10418000423084F8433084F8443084F8453084F871
:104190003D30002010BD80F83C30FFF797FEDBE794
:1041A0000120704770B4056A046A24F001040462B7
:1041B0008469114EB0420DD0B0F1804F0AD0A6F5FF
:1041C0009436B04206D006F58066B04202D044F084
:1041D000010202E024F00304224322F0F0021B015A
:1041E000DBB2134325F00A0201F00A011143836197
:1041F000016270BC704700BF002C014038B590F8D8
:104200003C30012B5AD004460D46012380F83C3047
:1042100052B1042A1AD0082A2BD00C2A3BD00120F4
:10422000002384F83C3038BDCB684A6809680068D0
:10423000FFF7B8FF2268936923F00C0393612268AB
:104240009369A9680B4393610020E9E7CB684A684A
:1042500009680068FFF79AFD2268936923F44063B8
:10426000936122689369A96843EA0123936100205E
:10427000D6E7CB684A6809680068FFF7B5FD226891
:10428000D36923F00C03D3612268D369A9680B4377
:10429000D3610020C4E7CB684A6809680068FFF76B
:1042A000BEFD2268D36923F44063D3612268D369D9
:1042B000A96843EA0123D3610020B1E70220B2E7F5
:1042C00010B4846824F47F4C42EA03220A4342EA91
:1042D0000C02826010BC704790F83C30012B78D003
:1042E00010B50446012380F83C30022380F83D30AD
:1042F0000268936823F47F4323F0770393600B688D
:10430000602B4CD029D8402B54D00CD9502B22D123
:10431000CA6849680068FFF727FD50212068FFF749
:1043200099FD002005E0202B0DD009D9302B0AD0B3
:104330000120012384F83D30002384F83C3010BD77
:104340000BB1102B05D119462068FFF783FD002023
:10435000EFE70120EDE70120EBE7B3F5805F34D014
:10436000B3F5005F0CD1CB684A6889680068FFF735
:10437000A7FF2268936843F4804393600020D8E746
:10438000702B24D1CB684A6889680068FFF798FFD2
:104390002268936843F0770393600020C9E7CA68F6
:1043A00049680068FFF70DFD60212068FFF752FDA6
:1043B0000020BEE7CA6849680068FFF7D5FC4021C5
:1043C0002068FFF747FD0020B3E70020B1E7012098
:1043D000AFE70220704701F01F01012303FA01FC3F
:1043E000036A23EA0C030362036A02FA01F10B4336
:1043F0000362704710B504460B4609BB90F83E00B7
:10440000C0B26BBB94F84220D2B2012840F0948035
:10441000012A40F092809BBB022184F83E10002BC1
:104420003ED1022184F842100C2B00F28780DFE895
:1044300003F047858585668585856C858585720051
:10444000042905D0082907D090F84100C0B2D8E768
:1044500090F83F00C0B2D4E790F84000C0B2D0E777
:10446000042B05D0082B07D094F84520D2B2CCE716
:1044700094F84320D2B2C8E794F84420D2B2C4E7FB
:10448000042B05D0082B07D0022184F84110C6E781
:10449000022184F83F10C2E7022184F84010BEE7F1
:1044A000042B05D0082B07D0022184F84510BBE768
:1044B000022184F84310B7E7022184F84410B3E7DF
:1044C0002168CA6842F00202CA60012219462068C7
:1044D000FFF781FF23681B4A934222D0B3F1804F3C
:1044E0001FD0A2F5943293421BD002F58062934212
:1044F00017D01A6842F001021A6000201DE02168FE
:10450000CA6842F00402CA60DFE72168CA6842F064
:104510000802CA60D9E72168CA6842F01002CA607E
:10452000D3E79A6802F00702062A09D01A6842F017
:1045300001021A60002000E0012010BD1046FCE7D7
:104540000020FAE7002C014038B505460C460C293E
:1045500060D8DFE801F0075F5F5F2A5F5F5F305F71
:104560005F5F36000268D36823F00203D360002245
:1045700021462868FFF72FFF2B68196A41F21112B4
:10458000114208D1196A40F24442114203D11A681B
:1045900022F001021A60D4B9012385F83E3034BB01
:1045A000012385F84230002035E00268D36823F00B
:1045B0000403D360DBE70268D36823F00803D36009
:1045C000D5E70268D36823F01003D360CFE7042C4B
:1045D00005D0082C07D0012385F84130DFE70123FF
:1045E00085F83F30DBE7012385F84030D7E7042C1E
:1045F00006D0082C09D0012385F8453000200AE0B8
:10460000012385F84330002005E0012385F844307C
:10461000002000E0012038BD90F83C30012B2CD068
:1046200010B4012380F83C30022380F83D30036849
:104630005A689C6822F0700C0A6842EA0C025A60C0
:1046400003680F4A93420AD0B3F1804F07D0A2F516
:104650009432934203D002F58062934204D124F055
:1046600080044A6814439C60012380F83D30002395
:1046700080F83C30184610BC70470220704700BFDD
:10468000002C014070477047026802F10C0353E8A8
:10469000003F23F490730C3242E800310029F3D13B
:1046A000026802F1140353E8003F23F001031432BF
:1046B00042E800310029F3D1036B012B05D0202300
:1046C00080F84230002303637047026802F10C0354
:1046D00053E8003F23F010030C3242E80031002978
:1046E000F3D1ECE790F84130DBB2212B01D002206E
:1046F00070478368B3F5805F17D0036A5A1C026263
:104700001A7803685A60C38C9BB2013B9BB2C38486
:104710004BB90268D36823F08003D3600268D36882
:1047200043F04003D360002070470369002BE4D1BD
:10473000036A1B880268C3F308035360036A0233E9
:104740000362E0E710B504460268136923F440539E
:10475000C1680B43136183680269134342691A43BA
:104760000168CB6823F4B05323F00C031343CB60F0
:104770000268536923F4407381690B4353610268F3
:10478000134B9A4220D0FFF7B1FA024602EB8202A5
:1047900002EB820263689B00B2FBF3F20D48A0FBC0
:1047A00002314909642303FB11231B013233A0FBAF
:1047B00003235B0903F0F00202EB011203F00F0385
:1047C000216813448B6010BDFFF7A0FA0246DDE7B5
:1047D000003801401F85EB5160B310B5044690F8D6
:1047E000413013B3242384F841302268D36823F482
:1047F0000053D3602046FFF7A5FF2268136923F416
:10480000904313612268536923F02A03536122689D
:10481000D36843F40053D36000206064202384F8FD
:10482000413084F84230606310BD80F84030FDF7BD
:10483000BBFAD7E701207047704708B50168CA681E
:1048400022F04002CA60202280F84120FFF7F4FFE6
:10485000002008BD704708B5406A0023C385C384A3
:10486000FFF7F8FF08BD704790F84230DBB2222B0B
:1048700069D18368B3F5805F4FD0826AB3F5805FFA
:1048800004D0002B56D10369002B53D103685B6819
:104890001370836A01338362C38D9BB2013B9BB269
:1048A000C385002B51D100B583B00268D36823F0D3
:1048B0002003D3600268D36823F48073D360026856
:1048C000536923F001035361202380F84230002311
:1048D0004363036B012B33D100230363026802F1AE
:1048E0000C0353E8003F23F010030C3242E8003180
:1048F0000029F3D103681A6812F0100F06D00022C5
:1049000001921A6801925B680193019B818DFFF708
:10491000AAFF002003B05DF804FB0269002AACD1B5
:10492000826A03685B68C3F308031380836A0233F7
:104930008362B1E703685B6803F07F031370A8E745
:10494000FDF752FBE5E702207047002070470000AA
:1049500030B583B0044602681368D068516913F01B
:104960000F0505D113F0200F02D010F0200F19D140
:104970002DB111F0010119D110F4907F16D1216BE6
:1049800001297DD013F0800F03D010F0800F40F08C
:10499000188113F0400F03D010F0400F40F0158144
:1049A00003B030BD2046FFF75FFFF9E713F0010FBA
:1049B00006D010F4807F03D0626C42F00102626482
:1049C00013F0040F04D019B1626C42F00202626469
:1049D00013F0020F04D019B1626C42F00402626459
:1049E00013F0080F07D010F0200F00D119B1626C3E
:1049F00042F008026264626C002AD1D013F0200FEA
:104A000002D010F0200F29D123685B6903F0400326
:104A1000626C12F0080F00D163B32046FFF734FE3A
:104A200023685B6913F0400F20D0226802F1140361
:104A300053E8003F23F04003143242E800310029DC
:104A4000F3D1E36B73B1634A5A63E06BFDF7CCFBC0
:104A50000028A5D0E06B436B9847A1E72046FFF7FD
:104A600003FFD1E72046FFF7F5FE99E72046FFF761
:104A7000F1FE95E72046FFF7EDFE002363648FE724
:104A800013F0100F3FF47EAF10F0100F3FF47AAF29
:104A9000002301931368019353680193019B5369A9
:104AA00013F0400F51D0E26B13685B689BB2002B90
:104AB0003FF476AFA18D99427FF672AFE38593699B
:104AC000202B37D0226802F10C0353E8003F23F477
:104AD00080730C3242E800310029F3D1226802F1E0
:104AE000140353E8003F23F00103143242E800317D
:104AF0000029F3D1226802F1140353E8003F23F0A8
:104B00004003143242E800310029F3D1202384F815
:104B1000423000232363226802F10C0353E8003F74
:104B200023F010030C3242E800310029F3D1E06B8E
:104B3000FDF736FB02236363A18DE38D9BB2C91A97
:104B400089B22046FFF78FFE2AE7A18DE38D9BB245
:104B5000C91A89B2E38D9BB2002B3FF421AF002923
:104B60003FF41EAF226802F10C0353E8003F23F428
:104B700090730C3242E800300028F3D1226802F131
:104B8000140353E8003F23F00103143242E80030DD
:104B90000028F3D1202384F84230002323632268C5
:104BA00002F10C0353E8003F23F010030C3242E8FB
:104BB00000300028F3D1022363632046FFF753FE41
:104BC000EEE62046FFF78EFDEAE62046FFF735FECB
:104BD000E6E600BF5748000881628285C28500234F
:104BE0004364222380F84230036923B10268D3680A
:104BF00043F48073D3600268536943F00103536147
:104C00000268D36843F02003D3600020704708B5E2
:104C100090F84230DBB2202B08D149B10AB901200B
:104C200008BD00230363FFF7D7FFF9E70220F7E78A
:104C30000120F5E7EFF3058393B9EFF3108393B900
:104C40000C4B1868022804D080B90A4B01221A6064
:104C50007047EFF31183002BF6D06FF0050070471B
:104C60006FF0050070476FF0050070474FF0FF30A0
:104C7000704700BF4C0D002008B5EFF30583B3B9B2
:104C8000EFF31083B3B90E4B1B68022B08D0012B36
:104C900013D10B4B02221A6001F0AAFA002008BDC2
:104CA000EFF31182002AF2D06FF00500F7E76FF002
:104CB0000500F4E76FF00500F1E74FF0FF30EEE795
:104CC0004C0D0020F0B587B000240494EFF3058468
:104CD000002C43D1EFF31083002B3FD1334B1B68E3
:104CE000022B16D0002839D000238DF8173062B37C
:104CF000156895B1936903B918235C1E372C51D8F8
:104D0000546814F0010F4FD156694EB14FEA960C1A
:104D100008E0EFF311830BBBE4E70DF11705E9E7BA
:104D20004FF0800C94682CB1D7685B2F02D91769BB
:104D300007B1B6B914B14FF0FF340CE0D46894B9A0
:104D400014699CB14FF0FF3405E0002418234FF0A4
:104D5000800C0DF11705012C0AD0ACB1049807B0F6
:104D6000F0BD0124F7E74FF0FF34F4E70024F2E749
:104D7000146992680292019400930B466246294698
:104D800001F0C8F90490E9E704AA019200930B46E8
:104D90001FFA8CF2294601F0F7F90128DED0002332
:104DA0000493DBE70020DAE70020D8E74C0D002071
:104DB00008B5EFF30583A3B9EFF31083A3B90C4B48
:104DC0001B68022B02D040B9002008BDEFF311830D
:104DD000002BF8D06FF00500F7E701F06DFB002025
:104DE000F3E76FF00500F0E76FF00500EDE700BFB7
:104DF0004C0D002008B5EFF3058333BBEFF31083B0
:104E00002BBB154B1B68022B0CD0D0B1836813B1A0
:104E1000C2681F2A11D85BB14FF0FF33CBB900F045
:104E2000F4F813E0EFF31183002BEED000200DE037
:104E3000C36843B14FF0FF33F0E7184600F0C0F805
:104E400004E00023EAE70023E8E7002008BD002093
:104E5000FCE70020FAE700BF4C0D002070B310B54E
:104E600082B00C46034611F07F4F2AD1EFF3058242
:104E70004AB9EFF3108232B9164A1268022A18D1E1
:104E8000EFF31182AAB10022019201AA214618462D
:104E900000F098F9C8B9019BD3B14FF0E0234FF06F
:104EA0008052C3F8042DBFF34F8FBFF36F8F20469E
:104EB00009E02146184600F03AF904E06FF00300DB
:104EC00070476FF0030002B010BD6FF00200FAE708
:104ED0002046F8E74C0D0020B0B370B582B00C4608
:104EE0001D46844611F07F4F31D1EFF3058393BB0C
:104EF000EFF3108393BB1E4B1B68022B13D012F0F1
:104F0000010617D0012312F0020F15D000220095E0
:104F10002146604600F087F886B1844219D005B377
:104F20006FF0010015E0EFF31183002BE7D06FF075
:104F300005000EE00023E6E70122E8E7044208D17D
:104F400095B16FF0010004E06FF0030070476FF05F
:104F5000030002B070BD6FF00500FAE76FF00500C6
:104F6000F7E76FF00200F4E76FF00200F1E700BF2F
:104F70004C0D0020034B0360034B0B608023136038
:104F8000704700BFF00C0020F00A0020034B0360C4
:104F9000034B0B604FF48073136070475011002077
:104FA000500D00201AB9084206D11046704731EA68
:104FB000000303D000207047012070470120704794
:104FC00080B110B582B0044620230193019B202BB1
:104FD00011D04FF0500383F31188BFF36F8FBFF3ED
:104FE0004F8FFEE74FF0500383F31188BFF36F8FAD
:104FF000BFF34F8FFEE7002340F8043B00F0ECF8CE
:1050000001232377204602B010BD38B5202000F0E0
:10501000FBFA044628B1002540F8045B00F0DCF8F8
:105020002577204638BD2DE9F84378B10C46164661
:105030001D46074611F07F4811D04FF0500383F30F
:105040001188BFF36F8FBFF34F8FFEE74FF0500310
:1050500083F31188BFF36F8FBFF34F8FFEE741B922
:105060004FF0500383F31188BFF36F8FBFF34F8F5F
:10507000FEE701F0CFFB50B9089B43B14FF050035E
:1050800083F31188BFF36F8FBFF34F8FFEE701F0FB
:10509000FDF8D7F800902A4621464846FFF782FFE0
:1050A000F0B116B129EA04033B6001F089F9B8F1C7
:1050B000000F12D048B94FF0E0234FF08052C3F8F0
:1050C000042DBFF34F8FBFF36F8F01F0FBFB8146C1
:1050D00010F0007F1AD029F07F494846BDE8F883D8
:1050E000089B83B166B941460DB141F08061089AD1
:1050F0002143381D01F068FAC146DDF82080D4E76D
:105100004FF08071F0E7DDF82080CEE700F002F983
:10511000D7F800902A4621464846FFF743FF18B1CA
:1051200016B129EA04043C6000F016F9D3E7F8B59B
:1051300068B10D46044611F07F4711D04FF050037F
:1051400083F31188BFF36F8FBFF34F8FFEE74FF0EC
:10515000500383F31188BFF36F8FBFF34F8FFEE7C8
:1051600000F10C0601F092F8206923682B432360BC
:105170000AE0216832EA010105D111E0216841F01D
:10518000007101F0AFFA2846B0420ED045680368BE
:1051900023F07F4213F0806FEBD121681142F2D0EF
:1051A00013F0807FEAD01743E8E7236823EA070378
:1051B000236001F005F92068F8BD08B5FFF7B7FFD7
:1051C00008BD000008B513460A460146014801F033
:1051D0009DFD08BDBB51000800F1080343604FF07E
:1051E000FF328260C36003610023036070470023C5
:1051F0000361704743684B609A688A6051609960A8
:105200000861036801330360704730B40D68B5F17D
:10521000FF3F11D000F108031C465B681A68AA42E0
:10522000FAD963684B6099608C60616008610368BB
:105230000133036030BC70470469F2E703694168D9
:1052400082688A60416851605A68824206D00022B2
:1052500002611A68013A1A601868704782685A60D9
:10526000F5E7000082B0002301930D4B1B68B3F1FA
:10527000FF3F08D04FF0500383F31188BFF36F8FC7
:10528000BFF34F8FFEE74FF0500383F31188BFF356
:105290006F8FBFF34F8F019B002BFCD002B0704784
:1052A0002000002006480068006880F3088862B685
:1052B00061B6BFF34F8FBFF36F8F00DF00BF0000F9
:1052C00008ED00E04FF0807340F8043C21F001014C
:1052D00040F8081C034B40F80C3C40F8202C4038A8
:1052E000704700BF65520008000000000000000089
:1052F000074B19680868B0E8F00F80F30988BFF31E
:105300006F8F4FF0000080F311884EF00D0E704744
:105310000C1E00204FF0500383F31188BFF36F8FF2
:10532000BFF34F8F0B4A136801331360012B00D07A
:1053300070474FF0E023D3F8043D13F0FF0FF7D090
:105340004FF0500383F31188BFF36F8FBFF34F8F7C
:10535000FEE700BF20000020094B1B6843B94FF057
:10536000500383F31188BFF36F8FBFF34F8FFEE7B6
:10537000013B034A13600BB983F31188704700BFE8
:1053800020000020000000000000000000000000DD
:10539000EFF30980BFF36F8F0D4B1A6820E9F00F10
:1053A00010602DE908404FF0500080F3118801F0A3
:1053B000A9F84FF0000080F31188BDE80840196893
:1053C0000868B0E8F00F80F30988BFF36F8F70476B
:1053D0000C1E002008B54FF0500383F31188BFF373
:1053E0006F8FBFF34F8F00F05FFF28B14FF0E023C6
:1053F0004FF08052C3F8042D002383F3118808BDB9
:105400004FF0E022002313619361054B1B680549AF
:10541000A1FB03139B09013B5361072313617047F1
:1054200014000020D34D621010B582B02A4B1A78B8
:10543000D2B20192FF221A701B78DBB28DF80330D2
:105440009DF8033003F05003244A1370244B0722C5
:105450001A6009E0224A1368013B13609DF803308B
:105460005B00DBB28DF803309DF8033013F0800F42
:10547000F0D11B4B1B68032B08D04FF0500383F374
:105480001188BFF36F8FBFF34F8FFEE71B02144AE3
:10549000136003F4E0631360019BDBB20E4A1370E8
:1054A0004FF0E023D3F8202D42F47002C3F8202DF2
:1054B000D3F8202D42F07042C3F8202DFFF7A0FF53
:1054C0000024084B1C60FFF7EDFE01F01BF8FFF70E
:1054D000C9FE204602B010BD00E400E0AC1100207F
:1054E000B011002020000020EFF305830F2B0FD90F
:1054F000114A9B5CDBB2114A12789A4208D94FF0EC
:10550000500383F31188BFF36F8FBFF34F8FFEE714
:105510004FF0E023D3F80C3D03F4E063084A12682F
:10552000934208D94FF0500383F31188BFF36F8F74
:10553000BFF34F8FFEE77047F0E300E0AC110020AF
:10554000B0110020124A12F0070F1ED0D11D21F019
:105550000701C1F5406313440A460E48026000216A
:1055600041601344083B23F007030B480360596074
:105570001960991A51601360084B1960084B196043
:10558000084B4FF000421A6070474FF44063E4E765
:10559000B8110020C41D0020B4110020C01D00203F
:1055A000BC1D0020B81D0020154B1A461B68834205
:1055B000FBD3516802EB010C844509D0416800EB34
:1055C000010C634509D00360904218D01060704709
:1055D0004068014451601046F0E710B4094C24685B
:1055E000A3420AD05B681944416013681B680360DA
:1055F000904200D0106010BC70470460F8E770471C
:10560000C41D0020B411002070B5054600F03EFE18
:10561000344B1B68A3B1344B1B681D424AD135B1D2
:10562000083515F0070F02D025F007050835002DC5
:1056300042D02E4B1B68AB424DD32D4A146804E078
:10564000FFF780FFE7E722461C466368AB4202D2C1
:105650002368002BF7D1234B1B68A3423DD016686B
:1056600008362368136063685B1B102B10D9601920
:1056700010F0070F08D04FF0500383F31188BFF3E9
:105680006F8FBFF34F8FFEE743606560FFF78CFFBE
:10569000626816490B689B1A0B60164909688B42B1
:1056A00001D214490B60104B1B6813436360002345
:1056B000236002E0002600E0002600F081FE16F0E4
:1056C000070F0CD04FF0500383F31188BFF36F8F97
:1056D000BFF34F8FFEE70026EFE70026EDE73046E9
:1056E00070BD00BFB4110020B81D0020BC1D0020FB
:1056F000C41D0020C01D002080B338B50446A0F1B1
:10570000080550F8043C164A1268134208D14FF0BD
:10571000500383F31188BFF36F8FBFF34F8FFEE702
:1057200050F8081C41B14FF0500383F31188BFF3C8
:105730006F8FBFF34F8FFEE723EA020340F8043C6C
:1057400000F0A4FD54F8041C064A13680B441360CF
:105750002846FFF729FF00F033FE38BD704700BF31
:10576000B81D0020BC1D002010B50446FFF7D2FD77
:10577000A26BE36B9A4204D00024FFF7EDFD2046B4
:1057800010BD0124F9E710B50446FFF7C3FDA36B74
:1057900023B90124FFF7E0FD204610BD0024F9E7FE
:1057A00070B504461546866B026C5AB903681BB186
:1057B00000200136A66370BD406801F03BF800236D
:1057C0006360F6E76DB98068FBF776F9226CA36831
:1057D0001344A3606268934219D32368A3602846E8
:1057E000E7E7C068FBF768F9226C5142E3689B1A4F
:1057F000E3602268934202D263680B44E360022DA7
:1058000001D00020D5E726B1013E0020D1E728468F
:10581000CFE70020CDE708B50346026C62B1084629
:10582000D9681144D960D3F804C0614501D319681F
:10583000D960D968FBF740F908BD38B50546FFF7D0
:1058400069FD95F8454064B201E0013C64B2002C6A
:105850000ADD6B6A43B105F1240000F0FDFE00286B
:10586000F3D000F0D1FFF0E7FF2385F84530FFF7D4
:1058700073FDFFF74FFD95F8444064B201E0013C31
:1058800064B2002C0ADD2B6943B105F1100000F071
:10589000E3FE0028F3D000F0B7FFF0E7FF2385F820
:1058A0004430FFF759FD38BD38B5E0B10D46044628
:1058B000FFF730FD2368E26B216C01FB0230606072
:1058C0000020A063A360013A02FB0133E360FF23E1
:1058D00084F8443084F84530FDB9236963B9FFF793
:1058E0003BFD012038BD4FF0500383F31188BFF317
:1058F0006F8FBFF34F8FFEE704F1100000F0ACFE96
:105900000028ECD04FF0E0234FF08052C3F8042D74
:10591000BFF34F8FBFF36F8FE1E704F11000FFF784
:105920005BFC04F12400FFF757FCD8E738B51D46AF
:10593000049C0B4649B92460E0632364012120469E
:10594000FFF7B2FF84F84C5038BD2260F4E740B94D
:105950004FF0500383F31188BFF36F8FBFF34F8F66
:10596000FEE710B584B01C46844653B192B189B9A4
:105970004FF0500383F31188BFF36F8FBFF34F8F46
:10598000FEE74FF0500383F31188BFF36F8FBFF32F
:105990004F8FFEE76AB150230393039B502B13D024
:1059A0004FF0500383F31188BFF36F8FBFF34F8F16
:1059B000FEE70029EFD04FF0500383F31188BFF3C7
:1059C0006F8FBFF34F8FFEE7012384F846300094BA
:1059D0009DF818306046FFF7A9FF204604B010BDBF
:1059E000F0B585B0019288B10F461D460446B1B1AD
:1059F000022D20D1E36B012B1DD04FF0500383F318
:105A00001188BFF36F8FBFF34F8FFEE74FF0500346
:105A100083F31188BFF36F8FBFF34F8FFEE7036CE3
:105A2000002BE5D04FF0500383F31188BFF36F8F45
:105A3000BFF34F8FFEE700F0EDFE064658B9019B1D
:105A4000002B48D04FF0500383F31188BFF36F8FC2
:105A5000BFF34F8FFEE700263DE02A463946204639
:105A6000FFF79EFE636A7BB948B14FF0E0234FF029
:105A70008052C3F8042DBFF34F8FBFF36F8FFFF732
:105A80006BFC012005B0F0BD04F1240000F0E4FD42
:105A90000028F4D04FF0E0234FF08052C3F8042DDB
:105AA000BFF34F8FBFF36F8FE9E7FFF755FC00207F
:105AB000E8E702A800F05AFE012619E0002384F866
:105AC000443021E0002384F8453023E02046FFF7EE
:105AD000B4FE00F075FCFFF71DFCA26BE36B9A426D
:105AE000BBD3022DB9D0019B002BDED0002EE0D01D
:105AF000FFF732FC00F0CAFBFFF70CFC94F84420DF
:105B000052B2B2F1FF3FD9D094F8452052B2B2F16F
:105B1000FF3FD7D0FFF720FC01A902A800F032FE1A
:105B2000D8B92046FFF720FE0028CFD0019904F114
:105B3000100000F031FD2046FFF77FFE00F040FC32
:105B40000028C8D14FF0E0234FF08052C3F8042D55
:105B5000BFF34F8FBFF36F8FBDE72046FFF76DFE9A
:105B600000F02EFC00208DE72DE9F84390B10F46A0
:105B700016461C460546B1B1022C20D1EB6B012B19
:105B80001DD04FF0500383F31188BFF36F8FBFF325
:105B90004F8FFEE74FF0500383F31188BFF36F8FF1
:105BA000BFF34F8FFEE7036C002BE5D04FF050039F
:105BB00083F31188BFF36F8FBFF34F8FFEE7FFF7BB
:105BC00093FCEFF311894FF0500383F31188BFF377
:105BD0006F8FBFF34F8FAA6BEB6B9A4206D3022CE9
:105BE00004D0002089F31188BDE8F88395F845803A
:105BF0004FFA88F8224639462846FFF7D1FDB8F11A
:105C0000FF3F06D008F101035BB285F84530012063
:105C1000E8E76B6A0BB90120E4E705F1240000F026
:105C20001BFD18B126B101203060DBE70120D9E768
:105C30000120D7E7F0B585B0019290B10F46044638
:105C4000C1B100F0E7FD064600BB019B002B5ED012
:105C50004FF0500383F31188BFF36F8FBFF34F8F63
:105C6000FEE74FF0500383F31188BFF36F8FBFF34C
:105C70004F8FFEE7036C002BE3D04FF0500383F30C
:105C80001188BFF36F8FBFF34F8FFEE700263EE012
:105C900039462046FFF7BFFD013DA563236923B9BF
:105CA000FFF75AFB012005B0F0BD04F1100000F031
:105CB000D3FC0028F4D04FF0E0234FF08052C3F81B
:105CC000042DBFF34F8FBFF36F8FE9E7FFF744FB5E
:105CD0000020E8E702A800F049FD012621E00023AA
:105CE00084F8443029E0002384F845302BE0204636
:105CF000FFF7A3FD00F064FB09E02046FFF79DFDE0
:105D000000F05EFB2046FFF73EFD00283FD1FFF785
:105D100001FBA56B002DBBD1019B002BD6D0002E23
:105D2000D8D0FFF719FB00F0B1FAFFF7F3FA94F8B7
:105D300044305BB2B3F1FF3FD1D094F845305BB251
:105D4000B3F1FF3FCFD0FFF707FB01A902A800F096
:105D500019FD0028D1D12046FFF715FD0028C6D037
:105D6000019904F1240000F017FC2046FFF765FDBF
:105D700000F026FB0028CAD14FF0E0234FF08052FC
:105D8000C3F8042DBFF34F8FBFF36F8FBFE7002021
:105D900089E700000023072B0CD8074A52F833206C
:105DA0000AB10133F7E7044A42F8331002EBC303A8
:105DB00058607047704700BFCC1D002070B5044686
:105DC0000D461646FFF7A6FA94F844305BB2B3F1DD
:105DD000FF3F0DD094F845305BB2B3F1FF3F0BD0DD
:105DE000FFF7BAFAA36B5BB12046FFF726FD70BD43
:105DF000002384F84430EDE7002384F84530EFE7D2
:105E00003246294604F1240000F00AFCECE70000C9
:105E1000084B1B681B6823B9074B4FF0FF321A6011
:105E20007047044B1B68DB68DB685A68024B1A60DA
:105E3000704700BF101E0020BC2200202DE9F04753
:105E400080460D4617469946089EDDF824A00A9C18
:105E50009200A521206B00F091FF236B07F1804297
:105E6000013A03EB820727F007074FF0000CBCF163
:105E70000F0F0BD815F80C2004EB0C0383F834201B
:105E800015F80C3013B10CF1010CF0E7002384F885
:105E90004330372E00D93726E662E66400252565B3
:105EA000201DFFF7A4F904F11800FFF7A0F9246101
:105EB000C6F13806A6616462656584F858504A46A2
:105EC00041463846FFF7FEF92060BAF1000F01D0D5
:105ED000CAF80040BDE8F08738B5002407E004EBBD
:105EE000840293000E481844FFF776F90134372CEA
:105EF000F5D90C4D2846FFF76FF90B4C2046FFF7FC
:105F00006BF90A48FFF768F90948FFF765F909488E
:105F1000FFF762F9084B1D60084B1C6038BD00BFDD
:105F2000181E002090220020A4220020C42200205D
:105F3000F0220020DC220020101E0020141E002071
:105F400010B50446FFF7E6F9224A136801331360DF
:105F5000214B1B685BB1214B1B686BB91E4B1B6847
:105F6000DA6AE36A9A4207D81B4B1C6004E01A4BBA
:105F70001C601368012B29D0194A13680133136080
:105F80006364E06A174B1B68984201D9154B18608F
:105F900000EB8000211D144B03EB8000FFF72AF972
:105FA000FFF7DAF90D4B1B687BB10B4B1B68DA6A04
:105FB000E36A9A4209D24FF0E0234FF08052C3F8CF
:105FC000042DBFF34F8FBFF36F8F10BDFFF784FF1A
:105FD000D2E700BF782200200C1E0020D82200202B
:105FE000882200208C220020181E002010B50446B4
:105FF00090F8593063B1012B11D0022B0ED04FF025
:10600000500383F31188BFF36F8FBFF34F8FFEE709
:10601000006BFFF771FB2046FFF76EFB10BDFFF72B
:106020006BFBFBE70F4B1B68D3B110B5FFF772F9A1
:106030000D4BDB68DC68201DFFF700F90B4A136885
:10604000013B1360074A1368013B1360FFF784F9B3
:106050002046FFF7CBFF034B1B68002BE6D110BD9A
:10606000704700BF7C220020F02200207822002010
:1060700008B5FFF7D7FF074B1B68012BF9D94FF085
:10608000E0234FF08052C3F8042DBFF34F8FBFF3CE
:106090006F8FEEE7181E002070B504460D46174BB3
:1060A0001E68174B18680430FFF7C8F8B4F1FF3FBB
:1060B0000DD03444124B1B685C60A64210D9114BC2
:1060C00018680F4B19680431FFF79FF870BD002D59
:1060D000EFD00B4B196804310B48FFF78BF8F5E74D
:1060E0000A4B1868064B19680431FFF78EF8084B05
:1060F0001B68A342EAD9064B1C60E7E70423002093
:106100000C1E0020141E0020DC220020101E002087
:10611000BC22002030B587B00B9C7CB10C9DB5B182
:106120005C250495049D5C2D1AD04FF0500383F339
:106130001188BFF36F8FBFF34F8FFEE74FF050030F
:1061400083F31188BFF36F8FBFF34F8FFEE74FF0DC
:10615000500383F31188BFF36F8FBFF34F8FFEE7B8
:106160000C9D2C63022485F8594000240394029569
:1061700005AC01940A9C0094FFF760FE0C98FFF7B1
:10618000DFFE059807B030BD2DE9F04385B0074626
:10619000884614461E469000FFF736FA00B3814643
:1061A0005C20FFF731FA0546B0B1C0F83090E5B198
:1061B000002385F85930039302950D9B01930C9BA6
:1061C00000933346224641463846FFF737FE2846BD
:1061D000FFF7B6FE012005E04846FFF78DFAE6E737
:1061E0004FF0FF3005B0BDE8F0834FF0FF30F9E726
:1061F00010B588B000240594069407AA06A905A83E
:10620000FEF7B8FE059B0293069B0193009423467C
:10621000079A18491848FFF77DFF184B186040B1DE
:1062200000F0C8FB012806D0B0F1FF3F18D008B03D
:1062300010BD0020F6E74FF0500383F31188BFF341
:106240006F8FBFF34F8F0E4B4FF0FF321A600D4B25
:1062500001221A600C4B00221A60FFF7E5F8E6E70E
:106260004FF0500383F31188BFF36F8FBFF34F8F4D
:10627000FEE700BF5484000871600008B8220020C7
:10628000BC220020D822002004230020024A1368E8
:1062900001331360704700BF84220020014B18684F
:1062A000704700BF04230020F8B53A4B1B68002B51
:1062B00064D1394B1D6801351D60C5B9374B1B686A
:1062C0001B6843B14FF0500383F31188BFF36F8F06
:1062D000BFF34F8FFEE7314A1168314B18681060E9
:1062E0001960304A136801331360FFF791FD2E4B9C
:1062F0001B68AB4238D900272C4B1B68DB6A03EBC9
:1063000083039A002A4B9B58012B3CD901273AE082
:106310000127224B1B681B6843B3204B1B68DB68BB
:10632000DC6863689D4226D3261D3046FEF786FF53
:10633000A36A1BB104F11800FEF780FFE36A1D4A4F
:106340001268934201D91B4A136003EB83039A003E
:10635000314617481044FEF74DFFE26A134B1B68A5
:10636000DB6A9A42D4D2D4E70027D2E70E4B4FF033
:10637000FF321A60C0E70C4A1360BDE70E4A13688B
:106380000133136000270D4B1B6803B1012738460A
:10639000F8BD00BF8422002004230020101E00202E
:1063A000141E0020C0220020BC2200200C1E002051
:1063B000181E00208C2200208022002008230020AC
:1063C00038B5354B1B6843B94FF0500383F3118840
:1063D000BFF36F8FBFF34F8FFEE7FEF79BFF2E4B90
:1063E0001A68013A1A601B68002B4FD12B4B1B68AF
:1063F0000BB900244BE00024294B1B681BB3284B2E
:10640000DB68DC6804F11800FEF718FF251D28463C
:10641000FEF714FFE06A234B1B68984201D9214B19
:10642000186000EB800029461F4B03EB8000FEF74D
:10643000E1FEE26A1D4B1B68DB6A9A42DCD31C4B0F
:1064400001221A60D8E70CB1FFF7E2FC194B1C6877
:1064500084B9174B1C68D4B14FF0E0234FF0805241
:10646000C3F8042DBFF34F8FBFF36F8F01240EE0ED
:10647000013C07D0FFF718FF0028F9D00C4B012290
:106480001A60F5E70B4B00221A60E2E70024FEF7E2
:1064900063FF204638BD00BF842200207822002000
:1064A000C42200208C220020181E00200C1E002078
:1064B000082300208022002010B5A8B10446104B0C
:1064C0001B6843B14FF0500383F31188BFF36F8F04
:1064D000BFF34F8FFEE7FFF7D9FE00212046FFF7FD
:1064E000DBFDFFF76DFF48B94FF0E0234FF080521E
:1064F000C3F8042DBFF34F8FBFF36F8F10BD00BFE4
:10650000842200201F4B1B681BB11F4B01221A6005
:1065100070471D4B00221A601C4B1B6803EB830164
:106520008A001B498A585AB90BB1013BF6E74FF074
:10653000500383F31188BFF36F8FBFF34F8FFEE7D4
:1065400003EB830082000A4450684068506003EB0C
:10655000830C4FEA8C020832114488420BD003EBC3
:10656000830291000A4A0A445268D168094A1160BC
:10657000064A13607047406862469100044A0A4424
:106580005060ECE784220020082300208C220020A9
:10659000181E00200C1E002058B110B50C46094AE8
:1065A00011681831FEF731FE01212046FFF774FD16
:1065B00010BD4FF0500383F31188BFF36F8FBFF30B
:1065C0004F8FFEE70C1E002070B110B51446024636
:1065D000114B1B688BB94FF0500383F31188BFF345
:1065E0006F8FBFF34F8FFEE74FF0500383F3118897
:1065F000BFF36F8FBFF34F8FFEE7084B186841F072
:1066000000418161196818311046FEF7F3FD012140
:106610002046FFF741FD10BD842200200C1E002003
:1066200038B570B10D4614460A4A11681831FEF7A4
:10663000E1FD0CB14FF0FF3521462846FFF72CFD58
:1066400038BD4FF0500383F31188BFF36F8FBFF352
:106650004F8FFEE70C1E002038B5C368DC6824B3FA
:1066600004F118052846FEF7E9FD184B1B682BBB03
:10667000251D2846FEF7E2FDE06A154B1B6898428F
:1066800001D9134B186000EB80002946114B03EB36
:106690008000FEF7AFFDE26A0F4B1B68DB6A9A428F
:1066A00011D901200D4B186038BD4FF0500383F312
:1066B0001188BFF36F8FBFF34F8FFEE7294608485D
:1066C000FEF798FDE7E70020EEE700BF84220020F8
:1066D0008C220020181E00200C1E00200823002001
:1066E000C422002038B51C4B1B6843B94FF050033F
:1066F00083F31188BFF36F8FBFF34F8FFEE741F035
:1067000000410160C468F4B1FEF798FD251D2846DC
:10671000FEF794FDE06A114B1B68984201D90F4BBC
:10672000186000EB800029460D4B03EB8000FEF75C
:1067300061FDE26A0B4B1B68DB6A9A4202D90A4B85
:1067400001221A6038BD4FF0500383F31188BFF364
:106750006F8FBFF34F8FFEE7842200208C22002032
:10676000181E00200C1E002008230020034B1B686D
:106770000360034B1B684360704700BFC0220020CA
:1067800004230020D8B170B50C46054601B3FEF7CE
:10679000C1FD1B4B19686B68C81A2268B2F1FF3F34
:1067A00027D0184E3668D5F800C0B44501D08B42CA
:1067B00024D9824215D80023236001241AE04FF027
:1067C000500383F31188BFF36F8FBFF34F8FFEE742
:1067D0004FF0500383F31188BFF36F8FBFF34F8FD8
:1067E000FEE75B1A134423602846FFF7BFFF00242F
:1067F00000E00024FEF7B0FD204670BD0124F9E75B
:1068000004230020C0220020014B01221A6070479F
:1068100008230020054B1B6833B1054B1B680BB1E7
:10682000002070470220704701207047D8220020C6
:106830008422002000283BD038B504461E4B1B683C
:10684000834208D04FF0500383F31188BFF36F8F5A
:10685000BFF34F8FFEE7036D43B94FF0500383F34F
:106860001188BFF36F8FBFF34F8FFEE7013B0365C6
:10687000C16AC26C91421DD00BB1002038BD051D0C
:106880002846FEF7DBFCE06CE062C0F13803A36150
:106890000A4B1B68984201D9084B186000EB800036
:1068A0002946074B03EB8000FEF7A4FC0120E5E737
:1068B000002070470020E1E70C1E00208C22002001
:1068C000181E0020044A136898691368DB6A12686E
:1068D000C3F13803936170470C1E0020064B1A6801
:1068E0001368B3FA83F35B09036013B9D3681868BC
:1068F00070470020704700BF0C23002008B541609E
:10690000006191420CD8D21A83699A4201D30120C6
:1069100008BD011D094B1868FEF777FC0020F7E75A
:106920009A4201D2994206D2011D054B1868FEF722
:106930006CFC0020ECE70120EAE700BF10230020F8
:106940000C23002030B583B0FEF7E4FC114B1B682C
:106950001BB1FEF701FD03B030BD0F4D2846FEF719
:106960003BFC0E4C2046FEF737FC0D4B1D600D4BDB
:106970001C60002300930C4B0C4A10210A20FEF7E8
:10698000E6FF044B18600028E3D00949FFF702FA3C
:10699000DFE700BF30240020B4230020C8230020FC
:1069A0000C23002010230020E023002014230020CB
:1069B0005C84000810B588B0FFF7C4FF124B1B6859
:1069C000CBB100240594069407AA06A905A8FEF7F2
:1069D000DDFA059B0293069B019302230093234655
:1069E000079A0A490A48FFF795FB0A4B186010B14D
:1069F000012008B010BD4FF0500383F31188BFF39E
:106A00006F8FBFF34F8FFEE73024002064840008AF
:106A1000F56C000834240020B8B19C4603461848A1
:106A2000006858B300B585B0009101920293052922
:106A30001CDCFFF7EFFE022810D000231A4669463F
:106A40000F480068FEF7CCFF15E04FF0500383F3CA
:106A50001188BFF36F8FBFF34F8FFEE70023069AB5
:106A6000694607480068FEF7BBFF04E00023624662
:106A70006946FFF779F805B05DF804FB0020704720
:106A80003024002070B582B01A4B1B681A6852B3CC
:106A9000DB681E68DC68251D2846FEF7CFFB636AAD
:106AA00020469847E369012BEED1A36933449E4207
:106AB00007D26360246129460E4B1868FEF7A5FBD8
:106AC000E2E7002100910B4632462046FFF7A4FF83
:106AD0000028D9D14FF0500383F31188BFF36F8F93
:106AE000BFF34F8FFEE7044A106802490860136045
:106AF00002B070BD0C2300201023002038B50546DD
:106B0000FFF7CCFB0446074B1B68834205D80023E4
:106B10002B60044B1C60204638BDFFF7B3FF0123F8
:106B20002B60F6E7DC23002070B582B006460D46E8
:106B300014490968C968CC68201DFEF77FFBE1692C
:106B4000012904D0636A2046984702B070BDA1694C
:106B500033462A4631442046FFF7D0FE0028F1D0C4
:106B6000002100910B4632462046FFF755FF0028D2
:106B7000E8D14FF0500383F31188BFF36F8FBFF359
:106B80004F8FFEE70C23002070B582B006460C46FE
:106B9000FFF77CFB01A8FFF7B1FF019B2BBB05466C
:106BA0000CB9B0421AD22CB1124B1B681C68B4FA53
:106BB00084F464092246711B0F4B1868FFF7FEF836
:106BC000FFF7FEFB98B94FF0E0234FF08052C3F877
:106BD000042DBFF34F8FBFF36F8F08E0FFF7F0FB7B
:106BE00029463046FFF7A0FF01E0FFF7E9FB02B0BE
:106BF00070BD00BF102300203024002010B588B0E5
:106C000002E0049B002B0FDA002204A9384B18681D
:106C1000FFF710F8002869D0049B002BF1DA0799E0
:106C20000698059B9847ECE7069C636913B1201D05
:106C3000FEF704FB03A8FFF761FF049B092BE3D8D1
:106C400001A252F823F000BF716C0008716C0008BB
:106C5000716C0008096C0008B76C0008DD6C000856
:106C6000716C0008716C0008096C0008B76C0008B2
:106C7000059BA169024619442046FFF73FFE002804
:106C8000C2D0636A20469847E369012BBCD1A26950
:106C9000002100910B46059802442046FFF7BCFEF8
:106CA0000028B1D14FF0500383F31188BFF36F8FE9
:106CB000BFF34F8FFEE70599A16131B1034602464C
:106CC00001442046FFF71AFE9EE74FF0500383F37E
:106CD0001188BFF36F8FBFF34F8FFEE794F82C300E
:106CE000002B91D12046FEF707FD8DE708B010BDBF
:106CF0003024002000B583B001A8FFF7EFFD019913
:106D0000FFF742FFFFF77AFFF6E7000010B584B007
:106D100014461A466FF00103009301900291039408
:106D20000023694602480068FEF71EFF04B010BD4C
:106D30003024002070B50D4E0D4D761BB61006D0D8
:106D4000002455F8043B01349847A642F9D1094E76
:106D5000094D00F051F9761BB61006D0002455F805
:106D6000043B01349847A642F9D170BD70840008F5
:106D7000708400087884000870840008830730B5A8
:106D800048D0541E002A3FD00346CAB201E0013C5D
:106D90003AD303F8012B9D07F9D1032C2DD9CDB29D
:106DA00045EA05250F2C45EA054536D9A4F1100220
:106DB00022F00F0C03F1200EE6444FEA121C03F1FF
:106DC000100242E9045542E9025510327245F8D1E9
:106DD0000CF1010214F00C0F03EB021204F00F0C83
:106DE00013D0ACF1040323F003030433134442F83B
:106DF000045B9342FBD10CF003042CB1CAB21C44D7
:106E000003F8012B9C42FBD130BD64461346002C95
:106E1000F4D1F9E703461446BFE71A46A446E0E773
:106E2000024B13B1024800F005B8704700000000A3
:106E3000416E0008002301461A46184600F01AB8B1
:106E400038B5084B084D5B1B9C1007D0043B1D4414
:106E5000013C55F804399847002CF9D1BDE8384079
:106E600000F0D0B87C84000878840008704700BF28
:106E7000704700BF2DE9F047DFF87CA00646DAF83E
:106E8000000098460F469146FFF7F0FF1B4B1B682A
:106E9000D3F8484124B365681F2D26DC5EB96B1C0E
:106EA0000235DAF80000636044F82570FFF7E0FF70
:106EB0000020BDE8F087012304EB8501C1F888902C
:106EC000D4F88821AB401A43022EC4F88821C1F8B7
:106ED0000881E4D1D4F88C211343C4F88C31DEE767
:106EE00003F5A674C3F84841D5E7DAF80000FFF7C8
:106EF000BFFF4FF0FF30DCE7500400206C84000837
:106F0000C1F30A52F8B5A2F2FF35132D0B468446A1
:106F10000C46064630DC002D1EDB354F2F4101EAC2
:106F20000702024315D030A3D3E90023F9F716F97D
:106F300000220023F9F7B4FE48B1002C04DA4FF424
:106F4000801343FA05F52C44002624EA070423465F
:106F5000B44660461946F8BD23A3D3E90023F9F7E8
:106F6000FDF800220023F9F79BFE0028EFD0002C4B
:106F700024DB00263446EAE7332D08DDB5F5806FC3
:106F8000E7D10246F9F7EAF884460B46E1E74FF00D
:106F9000FF37A2F21342D7400742DAD012A3D3E957
:106FA0000023F9F7DBF800220023F9F779FE002827
:106FB000CDD0002C0BDB26EA0706C8E724F00043FF
:106FC0000C4A1E43002E18BF14460026BFE7142D9E
:106FD00008D00123C5F1340503FA05F5AE1928BF21
:106FE000E418E8E70134E6E79C7500883CE4377E66
:106FF000FFFF0F000000F0BFF8B500BFF8BC08BCF1
:107000009E467047F8B500BFF8BC08BC9E46704766
:10701000616476616E636520200000007475726E95
:10702000206C6566740000007475726E207269676A
:10703000687400006261636B202020202020000023
:1070400073746F7020202020202000006163746919
:1070500076654576656E74006163746976650000D7
:1070600064656661756C745461736B004C700008E4
:107070000000000000000000000000005870000840
:107080000000000000000000000000000000000000
:1070900000020000080000000000000000000000E6
:1070A0006070000800000000000000000000000008
:1070B00000000000000200001800000000000000B6
:1070C00000000000526F626F7420434D44000000C6
:1070D00053746174757365733A000000000000001A
:1070E00000000000000000000000000000000000A0
:1070F0000000000000000000000000000000000090
:107100000000000C000C000C000C000C000C000C2B
:10711000000C000C000C000C0000000C000C000027
:10712000000000000000001B001B001B001B001BD8
:10713000000000000000000000000000000000004F
:107140000000000000000000000080198019801974
:107150008019C07FC07F80190033C07FC07F00339B
:107160000033003300330000000000000000001E68
:10717000003F807580650074003C001E000780059C
:10718000806580658075003F001E000400040000DB
:107190000000007000D840D8C0D880D90073000625
:1071A000000C801BC036C066C046C00680030000CD
:1071B000000000000000001E003F003300330033D9
:1071C000001E000CC03CC066806380618063C03ECE
:1071D000801C0000000000000000000C000C000CEF
:1071E000000C000C00000000000000000000000087
:1071F000000000000000000000000000800000010E
:107200000003000600060004000C000C000C000C3B
:10721000000C000C000400060006000300018000C2
:10722000002000100018000C000C000400060006EE
:1072300000060006000600060004000C000C001802
:10724000001000200000000C002D003F001E003345
:10725000000000000000000000000000000000002E
:107260000000000000000000000000000000000C12
:10727000000C000C000CC0FFC0FF000C000C000C48
:10728000000C0000000000000000000000000000F2
:1072900000000000000000000000000000000000EE
:1072A000000000000000000C000C000400040008B6
:1072B00000000000000000000000000000000000CE
:1072C0000000001E001E0000000000000000000082
:1072D00000000000000000000000000000000000AE
:1072E0000000000000000000000000000000000C92
:1072F000000C000000000000000000030003000379
:107300000006000600060006000C000C000C000C35
:107310000018001800180000000000000000001E07
:10732000003F0033806180618061806D806D80618D
:10733000806180610033003F001E000000000000FB
:1073400000000006000E001E0036002600060006A3
:107350000006000600060006000600060006000003
:10736000000000000000001E003F8073806180610B
:10737000800100030006000C001800300060807FD0
:10738000807F0000000000000000001C003E006341
:1073900000630003000E000E000380018001806185
:1073A0008073003F001E0000000000000000000687
:1073B000000E000E001E001E00160036003600668D
:1073C000807F807F000600060006000000000000AD
:1073D0000000007F007F006000600060006E007FA2
:1073E00080638001800180618073003F001E000087
:1073F000000000000000001E003F8033806100603C
:10740000006E007F80738061806180618033003F07
:10741000001E0000000000000000807F807F8001CF
:107420000003000300060006000C000C000C00081E
:107430000018001800180000000000000000001EE6
:10744000003F8063806180610021001E003F8061F9
:10745000806180618061003F001E0000000000002C
:107460000000001E003F00738061806180618073B6
:10747000803F801D800180610073003F001E00007E
:107480000000000000000000000000000000000CF0
:10749000000C000000000000000000000000000CD4
:1074A000000C0000000000000000000000000000D0
:1074B00000000000000C000C0000000000000000B4
:1074C0000000000C000C0004000400080000000094
:1074D0000000000080008003000E003800600038CB
:1074E000000E80038000000000000000000000008B
:1074F00000000000000000000000807F807F00008E
:107500000000807F807F000000000000000000007D
:1075100000000000000000000000000000400070BB
:10752000001C000780010007001C007000400000E4
:1075300000000000000000000000001F803FC0713C
:10754000C060C000C00180030007000E000C000CEA
:107550000000000C000C0000000000000000001EF5
:10756000003F803180718063806F806D806D806F9F
:10757000806700600032003E001C00000000000038
:107580000000000E000E001B001B001B001B8031C2
:107590008031803F803F8031C060C060C0600000AB
:1075A000000000000000007C007E006300630063B8
:1075B0000063007E007E0063806180618063007FE5
:1075C000007E0000000000000000001E003F80312F
:1075D00080610060006000600060006000608061A9
:1075E0008031003F001E0000000000000000007C11
:1075F000007F006380638061806180618061806161
:10760000806100630063007E007C000000000000D9
:107610000000807F807F0060006000600060007F6D
:10762000007F0060006000600060807F807F00005D
:10763000000000000000807F807F0060006000602C
:107640000060007F007F00600060006000600060FC
:1076500000600000000000000000001E003F8031BC
:107660008061006000600060806380638061806191
:107670008031803F001E000000000000000080619B
:1076800080618061806180618061807F807F8061B6
:107690008061806180618061806100000000000085
:1076A0000000003F003F000C000C000C000C000C20
:1076B000000C000C000C000C000C003F003F000010
:1076C0000000000000008001800180018001800135
:1076D0008001800180018001806180618073003FB2
:1076E000001E0000000000000000C0608061006318
:1076F00000660066006C0078007C0066006600632F
:1077000080618061C0600000000000000000006037
:107710000060006000600060006000600060006069
:10772000006000600060807F807F0000000000003B
:107730000000C071C071C07BC07AC06AC06AC06EF0
:10774000C064C060C060C060C060C060C060000055
:10775000000000000000807180718079807980795C
:10776000806D806D806D80658067806780678063D5
:1077700080630000000000000000001E003F003396
:1077800080618061806180618061806180618061F1
:107790000033003F001E0000000000000000007EDB
:1077A000007F80638061806180618063007F007EF4
:1077B00000600060006000600060000000000000E9
:1077C0000000001E003F00338061806180618061A5
:1077D00080618061806580670033803F401E0000CB
:1077E000000000000000007E007F806380618061F7
:1077F0008063007F007E00660063006380618061BB
:10780000C0600000000000000000000E001F80317A
:10781000803100300038001E0007800380618061E5
:107820008031003F001E0000000000000000C0FF8B
:10783000C0FF000C000C000C000C000C000C000C35
:10784000000C000C000C000C000C000000000000FC
:107850000000806180618061806180618061806101
:1078600080618061806180618073003F001E000044
:10787000000000000000C060C060C0608031803146
:107880008031001B001B001B001B000E000E000EB1
:1078900000040000000000000000C0C0C0C0C0C064
:1078A000C0C0C0C0C0CC804C804C805E8052805232
:1078B0008073806180610000000000000000C0C093
:1078C000806080610033003B001E000C000C001E35
:1078D000001F003B80718061C0C0000000000000FC
:1078E0000000C0C08061806100330033001E001EB4
:1078F000000C000C000C000C000C000C000C000034
:10790000000000000000803F803F80010003000372
:107910000006000C000C0018001800300060807F8A
:10792000807F000000000000000F000F000C000C22
:10793000000C000C000C000C000C000C000C000CE7
:10794000000C000C000C000C000F000F00000018D1
:1079500000180018000C000C000C000C00060006BB
:107960000006000600030003000300000000000002
:10797000001E001E000600060006000600060006A7
:1079800000060006000600060006000600060006C7
:10799000001E001E0000000C000C001E0012003330
:1079A00000338061806100000000000000000000E2
:1079B00000000000000000000000000000000000C7
:1079C00000000000000000000000000000000000B7
:1079D0000000000000000000E0FF00000000003890
:1079E0000018000C00000000000000000000000073
:1079F0000000000000000000000000000000000087
:107A000000000000000000000000001F803F8061B7
:107A10008001801F803F80618063807FC0380000CC
:107A20000000000000000060006000600060006E68
:107A3000007F807380618061806180618073007FDE
:107A4000006E0000000000000000000000000000C8
:107A50000000001E003F8073806100600060806154
:107A60008073003F001E0000000000000000800145
:107A7000800180018001801D803F80738061806172
:107A8000806180618073803F801D000000000000E5
:107A900000000000000000000000001E003F007316
:107AA0008061807F807F00608071003F001E000049
:107AB000000000000000C007C00F000C000C807F19
:107AC000807F000C000C000C000C000C000C000C63
:107AD000000C00000000000000000000000000009A
:107AE000801D803F807380618061806180618073D0
:107AF000803F801D80018063007F003E00000060A9
:107B0000006000600060006F807F80718061806134
:107B10008061806180618061806100000000000000
:107B200000000006000600000000003E003E0006C7
:107B3000000600060006000600060006000600001B
:107B4000000000000006000600000000003E003EAD
:107B500000060006000600060006000600060006F5
:107B600000060046007E003C0000006000600060EF
:107B70000060806100630066006C007C007600633A
:107B800000638061C0600000000000000000003E53
:107B9000003E00060006000600060006000600067D
:107BA00000060006000600060006000000000000B7
:107BB0000000000000000000000080DDC0FFC0CE1B
:107BC000C0CCC0CCC0CCC0CCC0CCC0CCC0CC0000E1
:107BD0000000000000000000000000000000006F36
:107BE000807F80718061806180618061806180615F
:107BF00080610000000000000000000000000000A4
:107C00000000001E003F80738061806180618061A0
:107C10008073003F001E0000000000000000000014
:107C200000000000006E007F8073806180618061D1
:107C300080618073007F006E006000600060006003
:107C40000000000000000000801D803F8073806104
:107C50008061806180618073803F801D8001800130
:107C600080018001000000000000000000000067AB
:107C7000803F0039003000300030003000300030EC
:107C800000300000000000000000000000000000C4
:107C90000000001E803F80610060007F803F800107
:107CA0008061007F001E0000000000000000000056
:107CB000000800180018007F007F00180018001846
:107CC000001800180018801F800F0000000000003E
:107CD0000000000000000000000080618061806101
:107CE00080618061806180618063807F803D000071
:107CF0000000000000000000000000000000C06064
:107D0000803180318031001B001B001B000E000EF3
:107D1000000600000000000000000000000000005D
:107D2000000080DD80DD80DD0055005500550077C6
:107D30000077002200220000000000000000000088
:107D4000000000000000806100330033001E000CC2
:107D5000000C001E003300338061000000000000B2
:107D6000000000000000000080618061803100336D
:107D70000033001B001B001B000E000E000E001C39
:107D8000007C007000000000000000000000C07FC8
:107D9000C07F800100030006000C00180030C07F87
:107DA000C07F00000000000080038007000600067E
:107DB000000600060006000E001C001C000E000657
:107DC0000006000600060006800780030006000685
:107DD0000006000600060006000600060006000673
:107DE0000006000600060006000600060006000663
:107DF0000038003C000C000C000C000C000C000EC5
:107E000000070007000E000C000C000C000C000C1A
:107E1000003C0038000000000000000000000000EE
:107E200000008038807F0047000000000000000054
:107E30000000000000000000000000000000000042
:107E400000000000000000000020002000200020B2
:107E500000200000002000000050005000500000F2
:107E600000000000000000000050005000F800502A
:107E700000F80050005000000020007800A00070C2
:107E8000002800F00020000000C000C80010002002
:107E90000040009800180000004000A000A0004032
:107EA00000A8009000680000003000300020004072
:107EB0000000000000000000001000200040004012
:107EC00000400020001000000040002000100010C2
:107ED0000010002000400000002000A8007000F802
:107EE000007000A80020000000000020002000F822
:107EF0000020002000000000000000000000000042
:107F0000003000300020000000000000000000F8F9
:107F10000000000000000000000000000000000061
:107F200000000030003000000000000800100020B9
:107F3000004000800000000000700088009800A849
:107F400000C80088007000000020006000200020B1
:107F50000020002000700000007000880008007001
:107F60000080008000F8000000F8000800100030D9
:107F700000080088007000000010003000500090E1
:107F800000F800100010000000F8008000F0000869
:107F9000000800880070000000380040008000F0F9
:107FA000008800880070000000F800080008001039
:107FB00000200040008000000070008800880070F1
:107FC0000088008800700000007000880088007839
:107FD0000008001000E00000000000000020000089
:107FE0000020000000000000000000000020000051
:107FF0000020002000400000000800100020004089
:1080000000200010000800000000000000F8000040
:1080100000F80000000000000040002000100008F0
:1080200000100020004000000070008800080030B0
:1080300000200000002000000070008800A800B8A8
:1080400000B0008000780000002000500088008808
:1080500000F800880088000000F00088008800F028
:108060000088008800F00000007000880080008018
:10807000008000880070000000F000880088008800
:108080000088008800F0000000F80080008000F008
:108090000080008000F8000000F80080008000F000
:1080A0000080008000800000007800880080008050
:1080B000009800880078000000880088008800F898
:1080C0000088008800880000007000200020002048
:1080D0000020002000700000003800100010001088
:1080E00000100090006000000088009000A000C018
:1080F00000A00090008800000080008000800080C8
:108100000080008000F80000008800D800A800A8C7
:1081100000A80088008800000088008800C800A827
:10812000009800880088000000700088008800889F
:10813000008800880070000000F00088008800F0CF
:1081400000800080008000000070008800880088A7
:1081500000A800900068000000F00088008800F08F
:1081600000A000900088000000700088008000706F
:10817000000800880070000000F800A8002000201F
:10818000002000200020000000880088008800886F
:10819000008800880070000000880088008800883F
:1081A000008800500020000000880088008800A897
:1081B00000A800A80050000000880088005000209F
:1081C00000500088008800000088008800500020CF
:1081D000002000200020000000F8000800100070BF
:1081E0000040008000F8000000780040004000409F
:1081F00000400040007800000000008000400020A7
:1082000000100008000000000078000800080008C6
:1082100000080008007800000020005000880000DE
:10822000000000000000000000000000000000004E
:108230000000000000F80000006000600020001056
:1082400000000000000000000000000000600010BE
:1082500000700090007800000080008000B000C82E
:10826000008800C800B00000000000000070008816
:108270000080008800700000000800080068009876
:10828000008800980068000000000000007000886E
:1082900000F800800070000000100028002000702E
:1082A0000020002000200000000000000070009866
:1082B00000980068000800000080008000B000C83E
:1082C0000088008800880000002000000060002076
:1082D00000200020007000000010000000100010BE
:1082E000001000900060000000800080009000A05E
:1082F00000C000A0009000000060002000200020CE
:1083000000200020007000000000000000D000A845
:1083100000A800A800A800000000000000B000C8ED
:1083200000880088008800000000000000700088BD
:1083300000880088007000000000000000B000C845
:1083400000C800B000800000000000000068009835
:1083500000980068000800000000000000B000C89D
:108360000080008000800000000000000078008095
:108370000070000800F000000020002000F800203D
:108380000020002800100000000000000088008885
:108390000088009800680000000000000088008845
:1083A00000880050002000000000000000880088C5
:1083B00000A800A800500000000000000088005045
:1083C00000200050008800000000000000880088A5
:1083D00000780008008800000000000000F800108D
:1083E0000020004000F800000010002000200040A5
:1083F00000200020001000000020002000200000CD
:10840000002000200020000000400020002000107C
:108410000020002000400000004000A800100000E4
:10842000000000000000000000000000000000004C
:10843000010203040607080900000000010203040A
:1084400002030405060708090A0B0C0D0E0F101095
:108450000102000049444C4500000000546D725177
:1084600000000000546D7220537663002800002045
:08847000216E0008350100082F
:0484780011010008E6
:10847C00960000000B120000DC70000806080000DB
:10848C00387E000800127A00010000001000000085
:10849C00AAAAAAAA000000000000000014030020F1
:1084AC007C030020E403002000000000000000001A
:1084BC0000000000000000000000000000000000B0
:1084CC0000000000000000000000000000000000A0
:1084DC000000000000000000000000000000000090
:1084EC000000000000000000000000000000000080
:1084FC000000000000000000000000000000000070
:10850C00000000000000000000000000000000005F
:10851C00000000000000000000000000000000004F
:10852C00000000000000000000000000000000003F
:10853C00000000000000000000000000000000002F
:10854C0001000000000000000E33CDAB34126DE6CC
:10855C00ECDE05000B000000000000000000000035
:10856C0000000000000000000000000000000000FF
:10857C0000000000000000000000000000000000EF
:10858C0000000000000000000000000000000000DF
:10859C0000000000000000000000000000000000CF
:0488CC00382400202C
:04000005080020359A
:00000001FF
